{
    "contractName": "Governance",
    "abi": [
        {
            "inputs": [
                {
                    "internalType": "address",
                    "name": "_parcelContract",
                    "type": "address"
                }
            ],
            "stateMutability": "nonpayable",
            "type": "constructor"
        },
        {
            "anonymous": false,
            "inputs": [
                {
                    "indexed": true,
                    "internalType": "uint256",
                    "name": "tokenId",
                    "type": "uint256"
                },
                {
                    "indexed": false,
                    "internalType": "address",
                    "name": "from",
                    "type": "address"
                },
                {
                    "indexed": false,
                    "internalType": "address",
                    "name": "to",
                    "type": "address"
                }
            ],
            "name": "HandoverInitiated",
            "type": "event"
        },
        {
            "anonymous": false,
            "inputs": [
                {
                    "indexed": true,
                    "internalType": "uint256",
                    "name": "tokenId",
                    "type": "uint256"
                },
                {
                    "indexed": false,
                    "internalType": "address",
                    "name": "from",
                    "type": "address"
                },
                {
                    "indexed": false,
                    "internalType": "address",
                    "name": "to",
                    "type": "address"
                }
            ],
            "name": "HandoverReceived",
            "type": "event"
        },
        {
            "anonymous": false,
            "inputs": [
                {
                    "indexed": true,
                    "internalType": "address",
                    "name": "previousOwner",
                    "type": "address"
                },
                {
                    "indexed": true,
                    "internalType": "address",
                    "name": "newOwner",
                    "type": "address"
                }
            ],
            "name": "OwnershipTransferred",
            "type": "event"
        },
        {
            "anonymous": false,
            "inputs": [
                {
                    "indexed": true,
                    "internalType": "uint256",
                    "name": "tokenId",
                    "type": "uint256"
                },
                {
                    "indexed": false,
                    "internalType": "address",
                    "name": "owner",
                    "type": "address"
                }
            ],
            "name": "ParcelRegistered",
            "type": "event"
        },
        {
            "anonymous": false,
            "inputs": [
                {
                    "indexed": true,
                    "internalType": "uint256",
                    "name": "tokenId",
                    "type": "uint256"
                },
                {
                    "indexed": false,
                    "internalType": "uint256",
                    "name": "threshold",
                    "type": "uint256"
                }
            ],
            "name": "SLASet",
            "type": "event"
        },
        {
            "anonymous": false,
            "inputs": [
                {
                    "indexed": true,
                    "internalType": "uint256",
                    "name": "tokenId",
                    "type": "uint256"
                }
            ],
            "name": "SLAViolated",
            "type": "event"
        },
        {
            "inputs": [
                {
                    "internalType": "uint256",
                    "name": "tokenId",
                    "type": "uint256"
                },
                {
                    "internalType": "uint256",
                    "name": "sensorValue",
                    "type": "uint256"
                }
            ],
            "name": "checkSLAViolation",
            "outputs": [],
            "stateMutability": "nonpayable",
            "type": "function"
        },
        {
            "inputs": [
                {
                    "internalType": "uint256",
                    "name": "tokenId",
                    "type": "uint256"
                }
            ],
            "name": "getSLA",
            "outputs": [
                {
                    "internalType": "uint256",
                    "name": "",
                    "type": "uint256"
                },
                {
                    "internalType": "bool",
                    "name": "",
                    "type": "bool"
                },
                {
                    "internalType": "string",
                    "name": "",
                    "type": "string"
                }
            ],
            "stateMutability": "view",
            "type": "function"
        },
        {
            "inputs": [
                {
                    "internalType": "uint256",
                    "name": "tokenId",
                    "type": "uint256"
                },
                {
                    "internalType": "address",
                    "name": "to",
                    "type": "address"
                }
            ],
            "name": "initiateHandover",
            "outputs": [],
            "stateMutability": "nonpayable",
            "type": "function"
        },
        {
            "inputs": [],
            "name": "owner",
            "outputs": [
                {
                    "internalType": "address",
                    "name": "",
                    "type": "address"
                }
            ],
            "stateMutability": "view",
            "type": "function"
        },
        {
            "inputs": [
                {
                    "internalType": "uint256",
                    "name": "tokenId",
                    "type": "uint256"
                }
            ],
            "name": "receiveHandover",
            "outputs": [],
            "stateMutability": "nonpayable",
            "type": "function"
        },
        {
            "inputs": [
                {
                    "internalType": "address",
                    "name": "owner",
                    "type": "address"
                }
            ],
            "name": "registerParcel",
            "outputs": [],
            "stateMutability": "nonpayable",
            "type": "function"
        },
        {
            "inputs": [],
            "name": "renounceOwnership",
            "outputs": [],
            "stateMutability": "nonpayable",
            "type": "function"
        },
        {
            "inputs": [
                {
                    "internalType": "uint256",
                    "name": "tokenId",
                    "type": "uint256"
                },
                {
                    "internalType": "uint256",
                    "name": "threshold",
                    "type": "uint256"
                },
                {
                    "internalType": "string",
                    "name": "description",
                    "type": "string"
                }
            ],
            "name": "setSLA",
            "outputs": [],
            "stateMutability": "nonpayable",
            "type": "function"
        },
        {
            "inputs": [
                {
                    "internalType": "address",
                    "name": "newOwner",
                    "type": "address"
                }
            ],
            "name": "transferOwnership",
            "outputs": [],
            "stateMutability": "nonpayable",
            "type": "function"
        }
    ],
    "bytecode": "608060405234801561001057600080fd5b50604051610c67380380610c6783398101604081905261002f916100ad565b6100383361005d565b600180546001600160a01b0319166001600160a01b03929092169190911790556100dd565b600080546001600160a01b038381166001600160a01b0319831681178455604051919092169283917f8be0079c531659141344cd1fd0a4f28419497f9722a3daafe3b4186f6b6457e09190a35050565b6000602082840312156100bf57600080fd5b81516001600160a01b03811681146100d657600080fd5b9392505050565b610b7b806100ec6000396000f3fe608060405234801561001057600080fd5b50600436106100935760003560e01c8063a82780a111610066578063a82780a1146100e8578063bf7792d2146100fb578063c3ac352b1461011d578063f2fde38b14610130578063fbb48f3e1461014357600080fd5b80630524b4f81461009857806350bb7378146100ad578063715018a6146100c05780638da5cb5b146100c8575b600080fd5b6100ab6100a6366004610818565b610156565b005b6100ab6100bb366004610848565b610278565b6100ab6103b2565b6000546040516001600160a01b0390911681526020015b60405180910390f35b6100ab6100f636600461086c565b6103c6565b61010e61010936600461088e565b610458565b6040516100df939291906108a7565b6100ab61012b366004610906565b61055e565b6100ab61013e366004610848565b6105d1565b6100ab61015136600461088e565b61064a565b60015460405162a4969f60e31b8152600481018490526001600160a01b038381166024830152909116908190630524b4f890604401600060405180830381600087803b1580156101a557600080fd5b505af11580156101b9573d6000803e3d6000fd5b50506040516331a9108f60e11b815260048101869052600092506001600160a01b0384169150636352211e90602401602060405180830381865afa158015610205573d6000803e3d6000fd5b505050506040513d601f19601f820116820180604052508101906102299190610986565b604080516001600160a01b0380841682528616602082015291925085917f84d9e94ad927798d690bea0081ec740e7e274bb467a073d57d3cf4ac19ee39ba91015b60405180910390a250505050565b610280610759565b600154604080516365507c9560e11b815290516000926001600160a01b03169163caa0f92a916004808301926020929190829003018187875af11580156102cb573d6000803e3d6000fd5b505050506040513d601f19601f820116820180604052508101906102ef91906109a3565b6001546040516340d097c360e01b81526001600160a01b0385811660048301529293509116906340d097c390602401600060405180830381600087803b15801561033857600080fd5b505af115801561034c573d6000803e3d6000fd5b505050600082815260026020908152604080832092835560018301805460ff19169055516001600160a01b038616815291925083917f46b3d502191f3e77c6f52bbaeeac01b90291a08d1c4b49ed49006d83dff7f09691015b60405180910390a2505050565b6103ba610759565b6103c460006107b3565b565b600082116103ef5760405162461bcd60e51b81526004016103e6906109bc565b60405180910390fd5b6000828152600260205260409020600181015460ff161580156104125750805482115b15610453576001818101805460ff1916909117905560405183907f800a4e738cdbf3afe6c7a418649d2728aee57fe5bc8309faf7b29de6543d8b6e90600090a25b505050565b60008060606000841161047d5760405162461bcd60e51b81526004016103e6906109bc565b6000848152600260208181526040808420815160608101835281548152600182015460ff161515938101939093529283018054929392918401916104c0906109e6565b80601f01602080910402602001604051908101604052809291908181526020018280546104ec906109e6565b80156105395780601f1061050e57610100808354040283529160200191610539565b820191906000526020600020905b81548152906001019060200180831161051c57829003601f168201915b5050509190925250508151602083015160409093015190989297509550909350505050565b6000841161057e5760405162461bcd60e51b81526004016103e6906109bc565b60008481526002602081905260409091208481550161059e828483610a84565b50837f5167c3d76b41002da4052dae8c79e6a988b417714f1f2b2821d3c2618c2cf2d08460405161026a91815260200190565b6105d9610759565b6001600160a01b03811661063e5760405162461bcd60e51b815260206004820152602660248201527f4f776e61626c653a206e6577206f776e657220697320746865207a65726f206160448201526564647265737360d01b60648201526084016103e6565b610647816107b3565b50565b600154604051637dda479f60e11b8152600481018390526001600160a01b0390911690819063fbb48f3e90602401600060405180830381600087803b15801561069257600080fd5b505af11580156106a6573d6000803e3d6000fd5b50506040516331a9108f60e11b815260048101859052600092506001600160a01b0384169150636352211e90602401602060405180830381865afa1580156106f2573d6000803e3d6000fd5b505050506040513d601f19601f820116820180604052508101906107169190610986565b604080516001600160a01b038316815233602082015291925084917ff3ce019236bae8a126b47a1c9cbbac9f35995bccecf3ec38690536daeb4a0a7091016103a5565b6000546001600160a01b031633146103c45760405162461bcd60e51b815260206004820181905260248201527f4f776e61626c653a2063616c6c6572206973206e6f7420746865206f776e657260448201526064016103e6565b600080546001600160a01b038381166001600160a01b0319831681178455604051919092169283917f8be0079c531659141344cd1fd0a4f28419497f9722a3daafe3b4186f6b6457e09190a35050565b6001600160a01b038116811461064757600080fd5b6000806040838503121561082b57600080fd5b82359150602083013561083d81610803565b809150509250929050565b60006020828403121561085a57600080fd5b813561086581610803565b9392505050565b6000806040838503121561087f57600080fd5b50508035926020909101359150565b6000602082840312156108a057600080fd5b5035919050565b838152600060208415158184015260606040840152835180606085015260005b818110156108e3578581018301518582016080015282016108c7565b506000608082860101526080601f19601f83011685010192505050949350505050565b6000806000806060858703121561091c57600080fd5b8435935060208501359250604085013567ffffffffffffffff8082111561094257600080fd5b818701915087601f83011261095657600080fd5b81358181111561096557600080fd5b88602082850101111561097757600080fd5b95989497505060200194505050565b60006020828403121561099857600080fd5b815161086581610803565b6000602082840312156109b557600080fd5b5051919050565b60208082526010908201526f125b9d985b1a59081d1bdad95b88125160821b604082015260600190565b600181811c908216806109fa57607f821691505b602082108103610a1a57634e487b7160e01b600052602260045260246000fd5b50919050565b634e487b7160e01b600052604160045260246000fd5b601f82111561045357600081815260208120601f850160051c81016020861015610a5d5750805b601f850160051c820191505b81811015610a7c57828155600101610a69565b505050505050565b67ffffffffffffffff831115610a9c57610a9c610a20565b610ab083610aaa83546109e6565b83610a36565b6000601f841160018114610ae45760008515610acc5750838201355b600019600387901b1c1916600186901b178355610b3e565b600083815260209020601f19861690835b82811015610b155786850135825560209485019460019092019101610af5565b5086821015610b325760001960f88860031b161c19848701351681555b505060018560011b0183555b505050505056fea26469706673582212204bb86e34dbf1239f5828f204446415aa42e6bdd97ad971ca569b54ec00b47e7864736f6c63430008130033",
    "sourcePath": "/home/edua/Documents/projects/parceltrack/contracts/Governance.sol",
    "compiler": {
        "name": "solc",
        "version": "0.8.19+commit.7dd6d404"
    },
    "functionHashes": {
        "checkSLAViolation(uint256,uint256)": "a82780a1",
        "getSLA(uint256)": "bf7792d2",
        "initiateHandover(uint256,address)": "0524b4f8",
        "owner()": "8da5cb5b",
        "receiveHandover(uint256)": "fbb48f3e",
        "registerParcel(address)": "50bb7378",
        "renounceOwnership()": "715018a6",
        "setSLA(uint256,uint256,string)": "c3ac352b",
        "transferOwnership(address)": "f2fde38b"
    },
    "gasEstimates": {
        "creation": {
            "codeDepositCost": "587800",
            "executionCost": "infinite",
            "totalCost": "infinite"
        },
        "external": {
            "checkSLAViolation(uint256,uint256)": "29993",
            "getSLA(uint256)": "infinite",
            "initiateHandover(uint256,address)": "infinite",
            "owner()": "2357",
            "receiveHandover(uint256)": "infinite",
            "registerParcel(address)": "infinite",
            "renounceOwnership()": "infinite",
            "setSLA(uint256,uint256,string)": "infinite",
            "transferOwnership(address)": "infinite"
        }
    }
}