{
    "contractName": "Parcel",
    "abi": [
        {
            "inputs": [
                {
                    "internalType": "string",
                    "name": "name",
                    "type": "string"
                },
                {
                    "internalType": "string",
                    "name": "symbol",
                    "type": "string"
                }
            ],
            "stateMutability": "nonpayable",
            "type": "constructor"
        },
        {
            "anonymous": false,
            "inputs": [
                {
                    "indexed": true,
                    "internalType": "address",
                    "name": "owner",
                    "type": "address"
                },
                {
                    "indexed": true,
                    "internalType": "address",
                    "name": "approved",
                    "type": "address"
                },
                {
                    "indexed": true,
                    "internalType": "uint256",
                    "name": "tokenId",
                    "type": "uint256"
                }
            ],
            "name": "Approval",
            "type": "event"
        },
        {
            "anonymous": false,
            "inputs": [
                {
                    "indexed": true,
                    "internalType": "address",
                    "name": "owner",
                    "type": "address"
                },
                {
                    "indexed": true,
                    "internalType": "address",
                    "name": "operator",
                    "type": "address"
                },
                {
                    "indexed": false,
                    "internalType": "bool",
                    "name": "approved",
                    "type": "bool"
                }
            ],
            "name": "ApprovalForAll",
            "type": "event"
        },
        {
            "anonymous": false,
            "inputs": [
                {
                    "indexed": true,
                    "internalType": "uint256",
                    "name": "tokenId",
                    "type": "uint256"
                },
                {
                    "indexed": false,
                    "internalType": "address",
                    "name": "from",
                    "type": "address"
                },
                {
                    "indexed": false,
                    "internalType": "address",
                    "name": "to",
                    "type": "address"
                }
            ],
            "name": "HandoverInitiated",
            "type": "event"
        },
        {
            "anonymous": false,
            "inputs": [
                {
                    "indexed": true,
                    "internalType": "uint256",
                    "name": "tokenId",
                    "type": "uint256"
                },
                {
                    "indexed": false,
                    "internalType": "address",
                    "name": "from",
                    "type": "address"
                },
                {
                    "indexed": false,
                    "internalType": "address",
                    "name": "to",
                    "type": "address"
                }
            ],
            "name": "HandoverReceived",
            "type": "event"
        },
        {
            "anonymous": false,
            "inputs": [
                {
                    "indexed": true,
                    "internalType": "address",
                    "name": "previousOwner",
                    "type": "address"
                },
                {
                    "indexed": true,
                    "internalType": "address",
                    "name": "newOwner",
                    "type": "address"
                }
            ],
            "name": "OwnershipTransferred",
            "type": "event"
        },
        {
            "anonymous": false,
            "inputs": [
                {
                    "indexed": true,
                    "internalType": "uint256",
                    "name": "tokenId",
                    "type": "uint256"
                },
                {
                    "indexed": false,
                    "internalType": "address",
                    "name": "owner",
                    "type": "address"
                }
            ],
            "name": "ParcelRegistered",
            "type": "event"
        },
        {
            "anonymous": false,
            "inputs": [
                {
                    "indexed": true,
                    "internalType": "address",
                    "name": "from",
                    "type": "address"
                },
                {
                    "indexed": true,
                    "internalType": "address",
                    "name": "to",
                    "type": "address"
                },
                {
                    "indexed": true,
                    "internalType": "uint256",
                    "name": "tokenId",
                    "type": "uint256"
                }
            ],
            "name": "Transfer",
            "type": "event"
        },
        {
            "inputs": [
                {
                    "internalType": "address",
                    "name": "to",
                    "type": "address"
                },
                {
                    "internalType": "uint256",
                    "name": "tokenId",
                    "type": "uint256"
                }
            ],
            "name": "approve",
            "outputs": [],
            "stateMutability": "nonpayable",
            "type": "function"
        },
        {
            "inputs": [
                {
                    "internalType": "address",
                    "name": "owner",
                    "type": "address"
                }
            ],
            "name": "balanceOf",
            "outputs": [
                {
                    "internalType": "uint256",
                    "name": "",
                    "type": "uint256"
                }
            ],
            "stateMutability": "view",
            "type": "function"
        },
        {
            "inputs": [
                {
                    "internalType": "uint256",
                    "name": "tokenId",
                    "type": "uint256"
                }
            ],
            "name": "getApproved",
            "outputs": [
                {
                    "internalType": "address",
                    "name": "",
                    "type": "address"
                }
            ],
            "stateMutability": "view",
            "type": "function"
        },
        {
            "inputs": [
                {
                    "internalType": "uint256",
                    "name": "tokenId",
                    "type": "uint256"
                },
                {
                    "internalType": "address",
                    "name": "to",
                    "type": "address"
                }
            ],
            "name": "initiateHandover",
            "outputs": [],
            "stateMutability": "nonpayable",
            "type": "function"
        },
        {
            "inputs": [
                {
                    "internalType": "address",
                    "name": "owner",
                    "type": "address"
                },
                {
                    "internalType": "address",
                    "name": "operator",
                    "type": "address"
                }
            ],
            "name": "isApprovedForAll",
            "outputs": [
                {
                    "internalType": "bool",
                    "name": "",
                    "type": "bool"
                }
            ],
            "stateMutability": "view",
            "type": "function"
        },
        {
            "inputs": [],
            "name": "name",
            "outputs": [
                {
                    "internalType": "string",
                    "name": "",
                    "type": "string"
                }
            ],
            "stateMutability": "view",
            "type": "function"
        },
        {
            "inputs": [],
            "name": "owner",
            "outputs": [
                {
                    "internalType": "address",
                    "name": "",
                    "type": "address"
                }
            ],
            "stateMutability": "view",
            "type": "function"
        },
        {
            "inputs": [
                {
                    "internalType": "uint256",
                    "name": "tokenId",
                    "type": "uint256"
                }
            ],
            "name": "ownerOf",
            "outputs": [
                {
                    "internalType": "address",
                    "name": "",
                    "type": "address"
                }
            ],
            "stateMutability": "view",
            "type": "function"
        },
        {
            "inputs": [
                {
                    "internalType": "uint256",
                    "name": "tokenId",
                    "type": "uint256"
                }
            ],
            "name": "receiveHandover",
            "outputs": [],
            "stateMutability": "nonpayable",
            "type": "function"
        },
        {
            "inputs": [],
            "name": "registerParcel",
            "outputs": [],
            "stateMutability": "nonpayable",
            "type": "function"
        },
        {
            "inputs": [],
            "name": "renounceOwnership",
            "outputs": [],
            "stateMutability": "nonpayable",
            "type": "function"
        },
        {
            "inputs": [
                {
                    "internalType": "address",
                    "name": "from",
                    "type": "address"
                },
                {
                    "internalType": "address",
                    "name": "to",
                    "type": "address"
                },
                {
                    "internalType": "uint256",
                    "name": "tokenId",
                    "type": "uint256"
                }
            ],
            "name": "safeTransferFrom",
            "outputs": [],
            "stateMutability": "nonpayable",
            "type": "function"
        },
        {
            "inputs": [
                {
                    "internalType": "address",
                    "name": "from",
                    "type": "address"
                },
                {
                    "internalType": "address",
                    "name": "to",
                    "type": "address"
                },
                {
                    "internalType": "uint256",
                    "name": "tokenId",
                    "type": "uint256"
                },
                {
                    "internalType": "bytes",
                    "name": "data",
                    "type": "bytes"
                }
            ],
            "name": "safeTransferFrom",
            "outputs": [],
            "stateMutability": "nonpayable",
            "type": "function"
        },
        {
            "inputs": [
                {
                    "internalType": "address",
                    "name": "operator",
                    "type": "address"
                },
                {
                    "internalType": "bool",
                    "name": "approved",
                    "type": "bool"
                }
            ],
            "name": "setApprovalForAll",
            "outputs": [],
            "stateMutability": "nonpayable",
            "type": "function"
        },
        {
            "inputs": [
                {
                    "internalType": "bytes4",
                    "name": "interfaceId",
                    "type": "bytes4"
                }
            ],
            "name": "supportsInterface",
            "outputs": [
                {
                    "internalType": "bool",
                    "name": "",
                    "type": "bool"
                }
            ],
            "stateMutability": "view",
            "type": "function"
        },
        {
            "inputs": [],
            "name": "symbol",
            "outputs": [
                {
                    "internalType": "string",
                    "name": "",
                    "type": "string"
                }
            ],
            "stateMutability": "view",
            "type": "function"
        },
        {
            "inputs": [
                {
                    "internalType": "uint256",
                    "name": "tokenId",
                    "type": "uint256"
                }
            ],
            "name": "tokenURI",
            "outputs": [
                {
                    "internalType": "string",
                    "name": "",
                    "type": "string"
                }
            ],
            "stateMutability": "view",
            "type": "function"
        },
        {
            "inputs": [
                {
                    "internalType": "address",
                    "name": "from",
                    "type": "address"
                },
                {
                    "internalType": "address",
                    "name": "to",
                    "type": "address"
                },
                {
                    "internalType": "uint256",
                    "name": "tokenId",
                    "type": "uint256"
                }
            ],
            "name": "transferFrom",
            "outputs": [],
            "stateMutability": "nonpayable",
            "type": "function"
        },
        {
            "inputs": [
                {
                    "internalType": "address",
                    "name": "newOwner",
                    "type": "address"
                }
            ],
            "name": "transferOwnership",
            "outputs": [],
            "stateMutability": "nonpayable",
            "type": "function"
        }
    ],
    "bytecode": "60806040523480156200001157600080fd5b5060405162001ca738038062001ca7833981016040819052620000349162000193565b818160006200004483826200028c565b5060016200005382826200028c565b505050620000706200006a6200007860201b60201c565b6200007c565b505062000358565b3390565b600680546001600160a01b038381166001600160a01b0319831681179093556040519116919082907f8be0079c531659141344cd1fd0a4f28419497f9722a3daafe3b4186f6b6457e090600090a35050565b634e487b7160e01b600052604160045260246000fd5b600082601f830112620000f657600080fd5b81516001600160401b0380821115620001135762000113620000ce565b604051601f8301601f19908116603f011681019082821181831017156200013e576200013e620000ce565b816040528381526020925086838588010111156200015b57600080fd5b600091505b838210156200017f578582018301518183018401529082019062000160565b600093810190920192909252949350505050565b60008060408385031215620001a757600080fd5b82516001600160401b0380821115620001bf57600080fd5b620001cd86838701620000e4565b93506020850151915080821115620001e457600080fd5b50620001f385828601620000e4565b9150509250929050565b600181811c908216806200021257607f821691505b6020821081036200023357634e487b7160e01b600052602260045260246000fd5b50919050565b601f8211156200028757600081815260208120601f850160051c81016020861015620002625750805b601f850160051c820191505b8181101562000283578281556001016200026e565b5050505b505050565b81516001600160401b03811115620002a857620002a8620000ce565b620002c081620002b98454620001fd565b8462000239565b602080601f831160018114620002f85760008415620002df5750858301515b600019600386901b1c1916600185901b17855562000283565b600085815260208120601f198616915b82811015620003295788860151825594840194600190910190840162000308565b5085821015620003485787850151600019600388901b60f8161c191681555b5050505050600190811b01905550565b61193f80620003686000396000f3fe608060405234801561001057600080fd5b50600436106101215760003560e01c8063715018a6116100ad578063b88d4fde11610071578063b88d4fde1461024c578063c87b56dd1461025f578063e985e9c514610272578063f2fde38b14610285578063fbb48f3e1461029857600080fd5b8063715018a614610210578063879de1e9146102185780638da5cb5b1461022057806395d89b4114610231578063a22cb4651461023957600080fd5b8063095ea7b3116100f4578063095ea7b3146101a357806323b872dd146101b657806342842e0e146101c95780636352211e146101dc57806370a08231146101ef57600080fd5b806301ffc9a7146101265780630524b4f81461014e57806306fdde0314610163578063081812fc14610178575b600080fd5b610139610134366004611450565b6102ab565b60405190151581526020015b60405180910390f35b61016161015c366004611489565b6102fd565b005b61016b6103e7565b6040516101459190611505565b61018b610186366004611518565b610479565b6040516001600160a01b039091168152602001610145565b6101616101b1366004611531565b6104a0565b6101616101c436600461155b565b6105b5565b6101616101d736600461155b565b610634565b61018b6101ea366004611518565b6106b3565b6102026101fd366004611597565b610717565b604051908152602001610145565b61016161076a565b61016161077e565b6006546001600160a01b031661018b565b61016b6107dc565b6101616102473660046115b2565b6107eb565b61016161025a366004611604565b6107f6565b61016b61026d366004611518565b61082e565b6101396102803660046116e0565b6108a2565b610161610293366004611597565b6108d0565b6101616102a6366004611518565b610949565b60006001600160e01b031982166380ac58cd60e01b14806102dc57506001600160e01b03198216635b5e139f60e01b145b806102f757506301ffc9a760e01b6001600160e01b03198316145b92915050565b6103073383610a60565b61036f5760405162461bcd60e51b815260206004820152602e60248201527f4f6e6c79207468652063757272656e74206f776e65722063616e20696e69746960448201526d30ba329030903430b73237bb32b960911b60648201526084015b60405180910390fd5b6001600160a01b0381166103955760405162461bcd60e51b81526004016103669061170a565b604080513381526001600160a01b038316602082015283917f84d9e94ad927798d690bea0081ec740e7e274bb467a073d57d3cf4ac19ee39ba910160405180910390a26103e3338284610abf565b5050565b6060600080546103f690611741565b80601f016020809104026020016040519081016040528092919081815260200182805461042290611741565b801561046f5780601f106104445761010080835404028352916020019161046f565b820191906000526020600020905b81548152906001019060200180831161045257829003601f168201915b5050505050905090565b600061048482610c23565b506000908152600460205260409020546001600160a01b031690565b60006104ab82610c82565b9050806001600160a01b0316836001600160a01b0316036105185760405162461bcd60e51b815260206004820152602160248201527f4552433732313a20617070726f76616c20746f2063757272656e74206f776e656044820152603960f91b6064820152608401610366565b336001600160a01b0382161480610534575061053481336108a2565b6105a65760405162461bcd60e51b815260206004820152603d60248201527f4552433732313a20617070726f76652063616c6c6572206973206e6f7420746f60448201527f6b656e206f776e6572206f7220617070726f76656420666f7220616c6c0000006064820152608401610366565b6105b08383610ce2565b505050565b6105bf3382610a60565b6106035760405162461bcd60e51b81526020600482015260156024820152742737ba1030b8383937bb32b21037b91037bbb732b960591b6044820152606401610366565b6001600160a01b0382166106295760405162461bcd60e51b81526004016103669061170a565b6105b0838383610d50565b61063e3382610a60565b6106825760405162461bcd60e51b81526020600482015260156024820152742737ba1030b8383937bb32b21037b91037bbb732b960591b6044820152606401610366565b6001600160a01b0382166106a85760405162461bcd60e51b81526004016103669061170a565b6105b0838383610d81565b6000818152600260205260408120546001600160a01b031661070e5760405162461bcd60e51b8152602060048201526014602482015273151bdad95b88191bd95cc81b9bdd08195e1a5cdd60621b6044820152606401610366565b6102f782610c82565b60006001600160a01b0382166107615760405162461bcd60e51b815260206004820152600f60248201526e496e76616c6964206164647265737360881b6044820152606401610366565b6102f782610d9c565b610772610e22565b61077c6000610e7c565b565b6000610788610ece565b90506107943382610ee9565b600081815260076020908152604091829020915133815283917f46b3d502191f3e77c6f52bbaeeac01b90291a08d1c4b49ed49006d83dff7f096910160405180910390a25050565b6060600180546103f690611741565b6103e3338383610f03565b6108003383610a60565b61081c5760405162461bcd60e51b81526004016103669061177b565b61082884848484610fd1565b50505050565b606061083982610c23565b600061085060408051602081019091526000815290565b90506000815111610870576040518060200160405280600081525061089b565b8061087a84611004565b60405160200161088b9291906117c8565b6040516020818303038152906040525b9392505050565b6001600160a01b03918216600090815260056020908152604080832093909416825291909152205460ff1690565b6108d8610e22565b6001600160a01b03811661093d5760405162461bcd60e51b815260206004820152602660248201527f4f776e61626c653a206e6577206f776e657220697320746865207a65726f206160448201526564647265737360d01b6064820152608401610366565b61094681610e7c565b50565b6000818152600260205260409020546001600160a01b03166109a45760405162461bcd60e51b8152602060048201526014602482015273151bdad95b88191bd95cc81b9bdd08195e1a5cdd60621b6044820152606401610366565b336109ae826106b3565b6001600160a01b031603610a045760405162461bcd60e51b815260206004820152601a60248201527f596f7520616c7265616479206f776e207468652070617263656c0000000000006044820152606401610366565b6000610a0f826106b3565b604080516001600160a01b038316815233602082015291925083917ff3ce019236bae8a126b47a1c9cbbac9f35995bccecf3ec38690536daeb4a0a70910160405180910390a26103e3813384610abf565b600080610a6c83610c82565b9050806001600160a01b0316846001600160a01b03161480610a935750610a9381856108a2565b80610ab75750836001600160a01b0316610aac84610479565b6001600160a01b0316145b949350505050565b826001600160a01b0316610ad282610c82565b6001600160a01b031614610af85760405162461bcd60e51b8152600401610366906117f7565b6001600160a01b038216610b5a5760405162461bcd60e51b8152602060048201526024808201527f4552433732313a207472616e7366657220746f20746865207a65726f206164646044820152637265737360e01b6064820152608401610366565b826001600160a01b0316610b6d82610c82565b6001600160a01b031614610b935760405162461bcd60e51b8152600401610366906117f7565b600081815260046020908152604080832080546001600160a01b03199081169091556001600160a01b0387811680865260038552838620805460001901905590871680865283862080546001019055868652600290945282852080549092168417909155905184937fddf252ad1be2c89b69c2b068fc378daa952ba7f163c4a11628f55a4df523b3ef91a4505050565b6000818152600260205260409020546001600160a01b03166109465760405162461bcd60e51b8152602060048201526018602482015277115490cdcc8c4e881a5b9d985b1a59081d1bdad95b88125160421b6044820152606401610366565b6000818152600260205260408120546001600160a01b0316806102f75760405162461bcd60e51b8152602060048201526018602482015277115490cdcc8c4e881a5b9d985b1a59081d1bdad95b88125160421b6044820152606401610366565b600081815260046020526040902080546001600160a01b0319166001600160a01b0384169081179091558190610d1782610c82565b6001600160a01b03167f8c5be1e5ebec7d5bd14f71427d1e84f3dd0314c0f7b2291e5b200ac8c7c3b92560405160405180910390a45050565b610d5a3382610a60565b610d765760405162461bcd60e51b81526004016103669061177b565b6105b0838383610abf565b6105b0838383604051806020016040528060008152506107f6565b60006001600160a01b038216610e065760405162461bcd60e51b815260206004820152602960248201527f4552433732313a2061646472657373207a65726f206973206e6f7420612076616044820152683634b21037bbb732b960b91b6064820152608401610366565b506001600160a01b031660009081526003602052604090205490565b6006546001600160a01b0316331461077c5760405162461bcd60e51b815260206004820181905260248201527f4f776e61626c653a2063616c6c6572206973206e6f7420746865206f776e65726044820152606401610366565b600680546001600160a01b038381166001600160a01b0319831681179093556040519116919082907f8be0079c531659141344cd1fd0a4f28419497f9722a3daafe3b4186f6b6457e090600090a35050565b600854600090610edf906001611097565b6008819055919050565b6103e38282604051806020016040528060008152506110a3565b816001600160a01b0316836001600160a01b031603610f645760405162461bcd60e51b815260206004820152601960248201527f4552433732313a20617070726f766520746f2063616c6c6572000000000000006044820152606401610366565b6001600160a01b03838116600081815260056020908152604080832094871680845294825291829020805460ff191686151590811790915591519182527f17307eab39ab6107e8899845ad3d59bd9653f200f220920489ca2b5937696c31910160405180910390a3505050565b610fdc848484610abf565b610fe8848484846110d6565b6108285760405162461bcd60e51b81526004016103669061183c565b60606000611011836111d7565b600101905060008167ffffffffffffffff811115611031576110316115ee565b6040519080825280601f01601f19166020018201604052801561105b576020820181803683370190505b5090508181016020015b600019016f181899199a1a9b1b9c1cb0b131b232b360811b600a86061a8153600a850494508461106557509392505050565b600061089b828461188e565b6110ad83836112af565b6110ba60008484846110d6565b6105b05760405162461bcd60e51b81526004016103669061183c565b60006001600160a01b0384163b156111cc57604051630a85bd0160e11b81526001600160a01b0385169063150b7a029061111a9033908990889088906004016118af565b6020604051808303816000875af1925050508015611155575060408051601f3d908101601f19168201909252611152918101906118ec565b60015b6111b2573d808015611183576040519150601f19603f3d011682016040523d82523d6000602084013e611188565b606091505b5080516000036111aa5760405162461bcd60e51b81526004016103669061183c565b805181602001fd5b6001600160e01b031916630a85bd0160e11b149050610ab7565b506001949350505050565b60008072184f03e93ff9f4daa797ed6e38ed64bf6a1f0160401b83106112165772184f03e93ff9f4daa797ed6e38ed64bf6a1f0160401b830492506040015b6d04ee2d6d415b85acef81000000008310611242576d04ee2d6d415b85acef8100000000830492506020015b662386f26fc10000831061126057662386f26fc10000830492506010015b6305f5e1008310611278576305f5e100830492506008015b612710831061128c57612710830492506004015b6064831061129e576064830492506002015b600a83106102f75760010192915050565b6001600160a01b0382166113055760405162461bcd60e51b815260206004820181905260248201527f4552433732313a206d696e7420746f20746865207a65726f20616464726573736044820152606401610366565b6000818152600260205260409020546001600160a01b03161561136a5760405162461bcd60e51b815260206004820152601c60248201527f4552433732313a20746f6b656e20616c7265616479206d696e746564000000006044820152606401610366565b6000818152600260205260409020546001600160a01b0316156113cf5760405162461bcd60e51b815260206004820152601c60248201527f4552433732313a20746f6b656e20616c7265616479206d696e746564000000006044820152606401610366565b6001600160a01b038216600081815260036020908152604080832080546001019055848352600290915280822080546001600160a01b0319168417905551839291907fddf252ad1be2c89b69c2b068fc378daa952ba7f163c4a11628f55a4df523b3ef908290a45050565b6001600160e01b03198116811461094657600080fd5b60006020828403121561146257600080fd5b813561089b8161143a565b80356001600160a01b038116811461148457600080fd5b919050565b6000806040838503121561149c57600080fd5b823591506114ac6020840161146d565b90509250929050565b60005b838110156114d05781810151838201526020016114b8565b50506000910152565b600081518084526114f18160208601602086016114b5565b601f01601f19169290920160200192915050565b60208152600061089b60208301846114d9565b60006020828403121561152a57600080fd5b5035919050565b6000806040838503121561154457600080fd5b61154d8361146d565b946020939093013593505050565b60008060006060848603121561157057600080fd5b6115798461146d565b92506115876020850161146d565b9150604084013590509250925092565b6000602082840312156115a957600080fd5b61089b8261146d565b600080604083850312156115c557600080fd5b6115ce8361146d565b9150602083013580151581146115e357600080fd5b809150509250929050565b634e487b7160e01b600052604160045260246000fd5b6000806000806080858703121561161a57600080fd5b6116238561146d565b93506116316020860161146d565b925060408501359150606085013567ffffffffffffffff8082111561165557600080fd5b818701915087601f83011261166957600080fd5b81358181111561167b5761167b6115ee565b604051601f8201601f19908116603f011681019083821181831017156116a3576116a36115ee565b816040528281528a60208487010111156116bc57600080fd5b82602086016020830137600060208483010152809550505050505092959194509250565b600080604083850312156116f357600080fd5b6116fc8361146d565b91506114ac6020840161146d565b60208082526019908201527f496e76616c696420726563697069656e74206164647265737300000000000000604082015260600190565b600181811c9082168061175557607f821691505b60208210810361177557634e487b7160e01b600052602260045260246000fd5b50919050565b6020808252602d908201527f4552433732313a2063616c6c6572206973206e6f7420746f6b656e206f776e6560408201526c1c881bdc88185c1c1c9bdd9959609a1b606082015260800190565b600083516117da8184602088016114b5565b8351908301906117ee8183602088016114b5565b01949350505050565b60208082526025908201527f4552433732313a207472616e736665722066726f6d20696e636f72726563742060408201526437bbb732b960d91b606082015260800190565b60208082526032908201527f4552433732313a207472616e7366657220746f206e6f6e20455243373231526560408201527131b2b4bb32b91034b6b83632b6b2b73a32b960711b606082015260800190565b808201808211156102f757634e487b7160e01b600052601160045260246000fd5b6001600160a01b03858116825284166020820152604081018390526080606082018190526000906118e2908301846114d9565b9695505050505050565b6000602082840312156118fe57600080fd5b815161089b8161143a56fea26469706673582212208acac167bdce16b1e3496ab574b75fdc9d697198d88c33c7a061908565c2315964736f6c63430008130033",
    "sourcePath": "/home/edua/Documents/projects/parceltrack/contracts/Parcel.sol",
    "compiler": {
        "name": "solc",
        "version": "0.8.19+commit.7dd6d404"
    },
    "functionHashes": {
        "approve(address,uint256)": "095ea7b3",
        "balanceOf(address)": "70a08231",
        "getApproved(uint256)": "081812fc",
        "initiateHandover(uint256,address)": "0524b4f8",
        "isApprovedForAll(address,address)": "e985e9c5",
        "name()": "06fdde03",
        "owner()": "8da5cb5b",
        "ownerOf(uint256)": "6352211e",
        "receiveHandover(uint256)": "fbb48f3e",
        "registerParcel()": "879de1e9",
        "renounceOwnership()": "715018a6",
        "safeTransferFrom(address,address,uint256)": "42842e0e",
        "safeTransferFrom(address,address,uint256,bytes)": "b88d4fde",
        "setApprovalForAll(address,bool)": "a22cb465",
        "supportsInterface(bytes4)": "01ffc9a7",
        "symbol()": "95d89b41",
        "tokenURI(uint256)": "c87b56dd",
        "transferFrom(address,address,uint256)": "23b872dd",
        "transferOwnership(address)": "f2fde38b"
    },
    "gasEstimates": {
        "creation": {
            "codeDepositCost": "1292600",
            "executionCost": "infinite",
            "totalCost": "infinite"
        },
        "external": {
            "approve(address,uint256)": "infinite",
            "balanceOf(address)": "2775",
            "getApproved(uint256)": "4814",
            "initiateHandover(uint256,address)": "infinite",
            "isApprovedForAll(address,address)": "infinite",
            "name()": "infinite",
            "owner()": "2398",
            "ownerOf(uint256)": "infinite",
            "receiveHandover(uint256)": "infinite",
            "registerParcel()": "infinite",
            "renounceOwnership()": "infinite",
            "safeTransferFrom(address,address,uint256)": "infinite",
            "safeTransferFrom(address,address,uint256,bytes)": "infinite",
            "setApprovalForAll(address,bool)": "26794",
            "supportsInterface(bytes4)": "534",
            "symbol()": "infinite",
            "tokenURI(uint256)": "infinite",
            "transferFrom(address,address,uint256)": "infinite",
            "transferOwnership(address)": "28424"
        },
        "internal": {
            "_getNextTokenId()": "24355"
        }
    }
}