{
  "contractName": "Governance",
  "abi": [
    {
      "inputs": [
        {
          "internalType": "address",
          "name": "_parcelContract",
          "type": "address"
        }
      ],
      "stateMutability": "nonpayable",
      "type": "constructor"
    },
    {
      "anonymous": false,
      "inputs": [
        {
          "indexed": true,
          "internalType": "uint256",
          "name": "tokenId",
          "type": "uint256"
        },
        {
          "indexed": false,
          "internalType": "address",
          "name": "from",
          "type": "address"
        },
        {
          "indexed": false,
          "internalType": "address",
          "name": "to",
          "type": "address"
        }
      ],
      "name": "HandoverInitiated",
      "type": "event"
    },
    {
      "anonymous": false,
      "inputs": [
        {
          "indexed": true,
          "internalType": "uint256",
          "name": "tokenId",
          "type": "uint256"
        },
        {
          "indexed": false,
          "internalType": "address",
          "name": "from",
          "type": "address"
        },
        {
          "indexed": false,
          "internalType": "address",
          "name": "to",
          "type": "address"
        }
      ],
      "name": "HandoverReceived",
      "type": "event"
    },
    {
      "anonymous": false,
      "inputs": [
        {
          "indexed": true,
          "internalType": "address",
          "name": "previousOwner",
          "type": "address"
        },
        {
          "indexed": true,
          "internalType": "address",
          "name": "newOwner",
          "type": "address"
        }
      ],
      "name": "OwnershipTransferred",
      "type": "event"
    },
    {
      "anonymous": false,
      "inputs": [
        {
          "indexed": true,
          "internalType": "uint256",
          "name": "tokenId",
          "type": "uint256"
        },
        {
          "indexed": false,
          "internalType": "address",
          "name": "owner",
          "type": "address"
        }
      ],
      "name": "ParcelRegistered",
      "type": "event"
    },
    {
      "anonymous": false,
      "inputs": [
        {
          "indexed": true,
          "internalType": "uint256",
          "name": "tokenId",
          "type": "uint256"
        },
        {
          "indexed": false,
          "internalType": "uint256",
          "name": "threshold",
          "type": "uint256"
        }
      ],
      "name": "SLASet",
      "type": "event"
    },
    {
      "anonymous": false,
      "inputs": [
        {
          "indexed": true,
          "internalType": "uint256",
          "name": "tokenId",
          "type": "uint256"
        }
      ],
      "name": "SLAViolated",
      "type": "event"
    },
    {
      "inputs": [],
      "name": "owner",
      "outputs": [
        {
          "internalType": "address",
          "name": "",
          "type": "address"
        }
      ],
      "stateMutability": "view",
      "type": "function"
    },
    {
      "inputs": [],
      "name": "renounceOwnership",
      "outputs": [],
      "stateMutability": "nonpayable",
      "type": "function"
    },
    {
      "inputs": [
        {
          "internalType": "address",
          "name": "newOwner",
          "type": "address"
        }
      ],
      "name": "transferOwnership",
      "outputs": [],
      "stateMutability": "nonpayable",
      "type": "function"
    },
    {
      "inputs": [
        {
          "internalType": "address",
          "name": "owner",
          "type": "address"
        }
      ],
      "name": "registerParcel",
      "outputs": [],
      "stateMutability": "nonpayable",
      "type": "function"
    },
    {
      "inputs": [
        {
          "internalType": "uint256",
          "name": "tokenId",
          "type": "uint256"
        },
        {
          "internalType": "address",
          "name": "to",
          "type": "address"
        }
      ],
      "name": "initiateHandover",
      "outputs": [],
      "stateMutability": "nonpayable",
      "type": "function"
    },
    {
      "inputs": [
        {
          "internalType": "uint256",
          "name": "tokenId",
          "type": "uint256"
        }
      ],
      "name": "receiveHandover",
      "outputs": [],
      "stateMutability": "nonpayable",
      "type": "function"
    },
    {
      "inputs": [
        {
          "internalType": "uint256",
          "name": "tokenId",
          "type": "uint256"
        },
        {
          "internalType": "uint256",
          "name": "threshold",
          "type": "uint256"
        },
        {
          "internalType": "string",
          "name": "description",
          "type": "string"
        }
      ],
      "name": "setSLA",
      "outputs": [],
      "stateMutability": "nonpayable",
      "type": "function"
    },
    {
      "inputs": [
        {
          "internalType": "uint256",
          "name": "tokenId",
          "type": "uint256"
        }
      ],
      "name": "getSLA",
      "outputs": [
        {
          "internalType": "uint256",
          "name": "",
          "type": "uint256"
        },
        {
          "internalType": "bool",
          "name": "",
          "type": "bool"
        },
        {
          "internalType": "string",
          "name": "",
          "type": "string"
        }
      ],
      "stateMutability": "view",
      "type": "function"
    },
    {
      "inputs": [
        {
          "internalType": "uint256",
          "name": "tokenId",
          "type": "uint256"
        },
        {
          "internalType": "uint256",
          "name": "sensorValue",
          "type": "uint256"
        }
      ],
      "name": "checkSLAViolation",
      "outputs": [],
      "stateMutability": "nonpayable",
      "type": "function"
    }
  ],
  "bytecode": "0x60806040523480156200001157600080fd5b50604051620015ec380380620015ec8339818101604052810190620000379190620001d5565b620000576200004b6200009f60201b60201c565b620000a760201b60201c565b80600160006101000a81548173ffffffffffffffffffffffffffffffffffffffff021916908373ffffffffffffffffffffffffffffffffffffffff1602179055505062000207565b600033905090565b60008060009054906101000a900473ffffffffffffffffffffffffffffffffffffffff169050816000806101000a81548173ffffffffffffffffffffffffffffffffffffffff021916908373ffffffffffffffffffffffffffffffffffffffff1602179055508173ffffffffffffffffffffffffffffffffffffffff168173ffffffffffffffffffffffffffffffffffffffff167f8be0079c531659141344cd1fd0a4f28419497f9722a3daafe3b4186f6b6457e060405160405180910390a35050565b600080fd5b600073ffffffffffffffffffffffffffffffffffffffff82169050919050565b60006200019d8262000170565b9050919050565b620001af8162000190565b8114620001bb57600080fd5b50565b600081519050620001cf81620001a4565b92915050565b600060208284031215620001ee57620001ed6200016b565b5b6000620001fe84828501620001be565b91505092915050565b6113d580620002176000396000f3fe608060405234801561001057600080fd5b50600436106100935760003560e01c8063a82780a111610066578063a82780a1146100f8578063bf7792d214610114578063c3ac352b14610146578063f2fde38b14610162578063fbb48f3e1461017e57610093565b80630524b4f81461009857806350bb7378146100b4578063715018a6146100d05780638da5cb5b146100da575b600080fd5b6100b260048036038101906100ad9190610b59565b61019a565b005b6100ce60048036038101906100c99190610b99565b6102ec565b005b6100d8610491565b005b6100e26104a5565b6040516100ef9190610bd5565b60405180910390f35b610112600480360381019061010d9190610bf0565b6104ce565b005b61012e60048036038101906101299190610c30565b61059f565b60405161013d93929190610d17565b60405180910390f35b610160600480360381019061015b9190610dba565b6106dd565b005b61017c60048036038101906101779190610b99565b61079f565b005b61019860048036038101906101939190610c30565b610822565b005b6000600160009054906101000a900473ffffffffffffffffffffffffffffffffffffffff1690508073ffffffffffffffffffffffffffffffffffffffff16630524b4f884846040518363ffffffff1660e01b81526004016101fc929190610e2e565b600060405180830381600087803b15801561021657600080fd5b505af115801561022a573d6000803e3d6000fd5b5050505060008173ffffffffffffffffffffffffffffffffffffffff16636352211e856040518263ffffffff1660e01b81526004016102699190610e57565b602060405180830381865afa158015610286573d6000803e3d6000fd5b505050506040513d601f19601f820116820180604052508101906102aa9190610e87565b9050837f84d9e94ad927798d690bea0081ec740e7e274bb467a073d57d3cf4ac19ee39ba82856040516102de929190610eb4565b60405180910390a250505050565b6102f4610971565b6000600160009054906101000a900473ffffffffffffffffffffffffffffffffffffffff1673ffffffffffffffffffffffffffffffffffffffff16636e02007d6040518163ffffffff1660e01b8152600401602060405180830381865afa158015610363573d6000803e3d6000fd5b505050506040513d601f19601f820116820180604052508101906103879190610ef2565b9050600160009054906101000a900473ffffffffffffffffffffffffffffffffffffffff1673ffffffffffffffffffffffffffffffffffffffff166340d097c3836040518263ffffffff1660e01b81526004016103e49190610bd5565b600060405180830381600087803b1580156103fe57600080fd5b505af1158015610412573d6000803e3d6000fd5b5050505060006002600083815260200190815260200160002090506000816000018190555060008160010160006101000a81548160ff021916908315150217905550817f46b3d502191f3e77c6f52bbaeeac01b90291a08d1c4b49ed49006d83dff7f096846040516104849190610bd5565b60405180910390a2505050565b610499610971565b6104a360006109ef565b565b60008060009054906101000a900473ffffffffffffffffffffffffffffffffffffffff16905090565b60008211610511576040517f08c379a000000000000000000000000000000000000000000000000000000000815260040161050890610f6b565b60405180910390fd5b60006002600084815260200190815260200160002090508060010160009054906101000a900460ff1615801561054a5750806000015482115b1561059a5760018160010160006101000a81548160ff021916908315150217905550827f800a4e738cdbf3afe6c7a418649d2728aee57fe5bc8309faf7b29de6543d8b6e60405160405180910390a25b505050565b6000806060600084116105e7576040517f08c379a00000000000000000000000000000000000000000000000000000000081526004016105de90610f6b565b60405180910390fd5b600060026000868152602001908152602001600020604051806060016040529081600082015481526020016001820160009054906101000a900460ff1615151515815260200160028201805461063c90610fba565b80601f016020809104026020016040519081016040528092919081815260200182805461066890610fba565b80156106b55780601f1061068a576101008083540402835291602001916106b5565b820191906000526020600020905b81548152906001019060200180831161069857829003601f168201915b5050505050815250509050806000015181602001518260400151935093509350509193909250565b60008411610720576040517f08c379a000000000000000000000000000000000000000000000000000000000815260040161071790610f6b565b60405180910390fd5b82600260008681526020019081526020016000206000018190555081816002600087815260200190815260200160002060020191826107609291906111d1565b50837f5167c3d76b41002da4052dae8c79e6a988b417714f1f2b2821d3c2618c2cf2d0846040516107919190610e57565b60405180910390a250505050565b6107a7610971565b600073ffffffffffffffffffffffffffffffffffffffff168173ffffffffffffffffffffffffffffffffffffffff1603610816576040517f08c379a000000000000000000000000000000000000000000000000000000000815260040161080d90611313565b60405180910390fd5b61081f816109ef565b50565b6000600160009054906101000a900473ffffffffffffffffffffffffffffffffffffffff1690508073ffffffffffffffffffffffffffffffffffffffff1663fbb48f3e836040518263ffffffff1660e01b81526004016108829190610e57565b600060405180830381600087803b15801561089c57600080fd5b505af11580156108b0573d6000803e3d6000fd5b5050505060008173ffffffffffffffffffffffffffffffffffffffff16636352211e846040518263ffffffff1660e01b81526004016108ef9190610e57565b602060405180830381865afa15801561090c573d6000803e3d6000fd5b505050506040513d601f19601f820116820180604052508101906109309190610e87565b9050827ff3ce019236bae8a126b47a1c9cbbac9f35995bccecf3ec38690536daeb4a0a708233604051610964929190610eb4565b60405180910390a2505050565b610979610ab3565b73ffffffffffffffffffffffffffffffffffffffff166109976104a5565b73ffffffffffffffffffffffffffffffffffffffff16146109ed576040517f08c379a00000000000000000000000000000000000000000000000000000000081526004016109e49061137f565b60405180910390fd5b565b60008060009054906101000a900473ffffffffffffffffffffffffffffffffffffffff169050816000806101000a81548173ffffffffffffffffffffffffffffffffffffffff021916908373ffffffffffffffffffffffffffffffffffffffff1602179055508173ffffffffffffffffffffffffffffffffffffffff168173ffffffffffffffffffffffffffffffffffffffff167f8be0079c531659141344cd1fd0a4f28419497f9722a3daafe3b4186f6b6457e060405160405180910390a35050565b600033905090565b600080fd5b600080fd5b6000819050919050565b610ad881610ac5565b8114610ae357600080fd5b50565b600081359050610af581610acf565b92915050565b600073ffffffffffffffffffffffffffffffffffffffff82169050919050565b6000610b2682610afb565b9050919050565b610b3681610b1b565b8114610b4157600080fd5b50565b600081359050610b5381610b2d565b92915050565b60008060408385031215610b7057610b6f610abb565b5b6000610b7e85828601610ae6565b9250506020610b8f85828601610b44565b9150509250929050565b600060208284031215610baf57610bae610abb565b5b6000610bbd84828501610b44565b91505092915050565b610bcf81610b1b565b82525050565b6000602082019050610bea6000830184610bc6565b92915050565b60008060408385031215610c0757610c06610abb565b5b6000610c1585828601610ae6565b9250506020610c2685828601610ae6565b9150509250929050565b600060208284031215610c4657610c45610abb565b5b6000610c5484828501610ae6565b91505092915050565b610c6681610ac5565b82525050565b60008115159050919050565b610c8181610c6c565b82525050565b600081519050919050565b600082825260208201905092915050565b60005b83811015610cc1578082015181840152602081019050610ca6565b60008484015250505050565b6000601f19601f8301169050919050565b6000610ce982610c87565b610cf38185610c92565b9350610d03818560208601610ca3565b610d0c81610ccd565b840191505092915050565b6000606082019050610d2c6000830186610c5d565b610d396020830185610c78565b8181036040830152610d4b8184610cde565b9050949350505050565b600080fd5b600080fd5b600080fd5b60008083601f840112610d7a57610d79610d55565b5b8235905067ffffffffffffffff811115610d9757610d96610d5a565b5b602083019150836001820283011115610db357610db2610d5f565b5b9250929050565b60008060008060608587031215610dd457610dd3610abb565b5b6000610de287828801610ae6565b9450506020610df387828801610ae6565b935050604085013567ffffffffffffffff811115610e1457610e13610ac0565b5b610e2087828801610d64565b925092505092959194509250565b6000604082019050610e436000830185610c5d565b610e506020830184610bc6565b9392505050565b6000602082019050610e6c6000830184610c5d565b92915050565b600081519050610e8181610b2d565b92915050565b600060208284031215610e9d57610e9c610abb565b5b6000610eab84828501610e72565b91505092915050565b6000604082019050610ec96000830185610bc6565b610ed66020830184610bc6565b9392505050565b600081519050610eec81610acf565b92915050565b600060208284031215610f0857610f07610abb565b5b6000610f1684828501610edd565b91505092915050565b7f496e76616c696420746f6b656e20494400000000000000000000000000000000600082015250565b6000610f55601083610c92565b9150610f6082610f1f565b602082019050919050565b60006020820190508181036000830152610f8481610f48565b9050919050565b7f4e487b7100000000000000000000000000000000000000000000000000000000600052602260045260246000fd5b60006002820490506001821680610fd257607f821691505b602082108103610fe557610fe4610f8b565b5b50919050565b600082905092915050565b7f4e487b7100000000000000000000000000000000000000000000000000000000600052604160045260246000fd5b60008190508160005260206000209050919050565b60006020601f8301049050919050565b600082821b905092915050565b6000600883026110877fffffffffffffffffffffffffffffffffffffffffffffffffffffffffffffffff8261104a565b611091868361104a565b95508019841693508086168417925050509392505050565b6000819050919050565b60006110ce6110c96110c484610ac5565b6110a9565b610ac5565b9050919050565b6000819050919050565b6110e8836110b3565b6110fc6110f4826110d5565b848454611057565b825550505050565b600090565b611111611104565b61111c8184846110df565b505050565b5b8181101561114057611135600082611109565b600181019050611122565b5050565b601f8211156111855761115681611025565b61115f8461103a565b8101602085101561116e578190505b61118261117a8561103a565b830182611121565b50505b505050565b600082821c905092915050565b60006111a86000198460080261118a565b1980831691505092915050565b60006111c18383611197565b9150826002028217905092915050565b6111db8383610feb565b67ffffffffffffffff8111156111f4576111f3610ff6565b5b6111fe8254610fba565b611209828285611144565b6000601f8311600181146112385760008415611226578287013590505b61123085826111b5565b865550611298565b601f19841661124686611025565b60005b8281101561126e57848901358255600182019150602085019450602081019050611249565b8683101561128b5784890135611287601f891682611197565b8355505b6001600288020188555050505b50505050505050565b7f4f776e61626c653a206e6577206f776e657220697320746865207a65726f206160008201527f6464726573730000000000000000000000000000000000000000000000000000602082015250565b60006112fd602683610c92565b9150611308826112a1565b604082019050919050565b6000602082019050818103600083015261132c816112f0565b9050919050565b7f4f776e61626c653a2063616c6c6572206973206e6f7420746865206f776e6572600082015250565b6000611369602083610c92565b915061137482611333565b602082019050919050565b600060208201905081810360008301526113988161135c565b905091905056fea2646970667358221220526717703bceb117543ac457befdb6d851b8313f0553c8f0d2816af1fa3e83c364736f6c63430008130033",
  "immutableReferences": {},
  "source": "// SPDX-License-Identifier: MIT\npragma solidity >=0.4.22 <0.9.0;\n\nimport \"./Parcel.sol\";\nimport \"@openzeppelin/contracts/access/Ownable.sol\";\n\ncontract Governance is Ownable {\n  struct SLAData {\n        uint256 threshold;\n        bool violated;\n        string description;\n    }\n\n    Parcel private parcelContract;\n    mapping(uint256 => SLAData) private _slaData;\n\n    event ParcelRegistered(uint256 indexed tokenId, address owner);\n    event HandoverInitiated(uint256 indexed tokenId, address from, address to);\n    event HandoverReceived(uint256 indexed tokenId, address from, address to);\n    event SLASet(uint256 indexed tokenId, uint256 threshold);\n    event SLAViolated(uint256 indexed tokenId);\n\n    constructor(address _parcelContract) {\n        parcelContract = Parcel(_parcelContract);\n    }\n\n\n    function registerParcel(address owner) external onlyOwner {\n    uint256 tokenId = parcelContract.getTokenCounter();\n    parcelContract.safeMint(owner);\n\n    // Create SLA data for the parcel\n    SLAData storage sla = _slaData[tokenId];\n    sla.threshold = 0;\n    sla.violated = false;\n\n    emit ParcelRegistered(tokenId, owner);\n}\n\n    function initiateHandover(uint256 tokenId, address to) external {\n        Parcel parcel = Parcel(parcelContract);\n        parcel.initiateHandover(tokenId, to);\n\n        address from = parcel.ownerOf(tokenId);\n        emit HandoverInitiated(tokenId, from, to);\n    }\n\n    function receiveHandover(uint256 tokenId) external {\n        Parcel parcel = Parcel(parcelContract);\n        parcel.receiveHandover(tokenId);\n\n        address from = parcel.ownerOf(tokenId);\n        emit HandoverReceived(tokenId, from, msg.sender);\n    }\n\n    function setSLA(uint256 tokenId, uint256 threshold, string calldata description) external {\n        require(tokenId > 0, \"Invalid token ID\");\n\n        _slaData[tokenId].threshold = threshold;\n        _slaData[tokenId].description = description;\n\n        emit SLASet(tokenId, threshold);\n    }\n\n    function getSLA(uint256 tokenId) external view returns (uint256, bool, string memory) {\n        require(tokenId > 0, \"Invalid token ID\");\n\n        SLAData memory sla = _slaData[tokenId];\n        return (sla.threshold, sla.violated, sla.description);\n    }\n\n    function checkSLAViolation(uint256 tokenId, uint256 sensorValue) external {\n        require(tokenId > 0, \"Invalid token ID\");\n\n        SLAData storage sla = _slaData[tokenId];\n        if (!sla.violated && sensorValue > sla.threshold) {\n            sla.violated = true;\n            emit SLAViolated(tokenId);\n        }\n    }\n}\n",
  "sourcePath": "/home/edua/Documents/projects/parceltrack/contracts/Governance.sol",
  "compiler": {
    "name": "solc",
    "version": "0.8.19+commit.7dd6d404.Emscripten.clang"
  },
  "schemaVersion": "3.4.13",
  "updatedAt": "2023-05-13T15:42:18.639Z",
  "devdoc": {
    "kind": "dev",
    "methods": {
      "owner()": {
        "details": "Returns the address of the current owner."
      },
      "renounceOwnership()": {
        "details": "Leaves the contract without owner. It will not be possible to call `onlyOwner` functions anymore. Can only be called by the current owner. NOTE: Renouncing ownership will leave the contract without an owner, thereby removing any functionality that is only available to the owner."
      },
      "transferOwnership(address)": {
        "details": "Transfers ownership of the contract to a new account (`newOwner`). Can only be called by the current owner."
      }
    },
    "version": 1
  },
  "userdoc": {
    "kind": "user",
    "methods": {},
    "version": 1
  }
}