{
  "contractName": "Governance",
  "abi": [
    {
      "inputs": [
        {
          "internalType": "address",
          "name": "_parcelContract",
          "type": "address"
        }
      ],
      "stateMutability": "nonpayable",
      "type": "constructor"
    },
    {
      "anonymous": false,
      "inputs": [
        {
          "indexed": true,
          "internalType": "uint256",
          "name": "tokenId",
          "type": "uint256"
        },
        {
          "indexed": false,
          "internalType": "address",
          "name": "from",
          "type": "address"
        },
        {
          "indexed": false,
          "internalType": "address",
          "name": "to",
          "type": "address"
        }
      ],
      "name": "HandoverInitiated",
      "type": "event"
    },
    {
      "anonymous": false,
      "inputs": [
        {
          "indexed": true,
          "internalType": "uint256",
          "name": "tokenId",
          "type": "uint256"
        },
        {
          "indexed": false,
          "internalType": "address",
          "name": "from",
          "type": "address"
        },
        {
          "indexed": false,
          "internalType": "address",
          "name": "to",
          "type": "address"
        }
      ],
      "name": "HandoverReceived",
      "type": "event"
    },
    {
      "anonymous": false,
      "inputs": [
        {
          "indexed": true,
          "internalType": "address",
          "name": "previousOwner",
          "type": "address"
        },
        {
          "indexed": true,
          "internalType": "address",
          "name": "newOwner",
          "type": "address"
        }
      ],
      "name": "OwnershipTransferred",
      "type": "event"
    },
    {
      "anonymous": false,
      "inputs": [
        {
          "indexed": true,
          "internalType": "uint256",
          "name": "tokenId",
          "type": "uint256"
        },
        {
          "indexed": false,
          "internalType": "address",
          "name": "owner",
          "type": "address"
        }
      ],
      "name": "ParcelRegistered",
      "type": "event"
    },
    {
      "anonymous": false,
      "inputs": [
        {
          "indexed": true,
          "internalType": "uint256",
          "name": "tokenId",
          "type": "uint256"
        },
        {
          "indexed": false,
          "internalType": "uint256",
          "name": "threshold",
          "type": "uint256"
        }
      ],
      "name": "SLASet",
      "type": "event"
    },
    {
      "anonymous": false,
      "inputs": [
        {
          "indexed": true,
          "internalType": "uint256",
          "name": "tokenId",
          "type": "uint256"
        }
      ],
      "name": "SLAViolated",
      "type": "event"
    },
    {
      "inputs": [],
      "name": "owner",
      "outputs": [
        {
          "internalType": "address",
          "name": "",
          "type": "address"
        }
      ],
      "stateMutability": "view",
      "type": "function"
    },
    {
      "inputs": [],
      "name": "renounceOwnership",
      "outputs": [],
      "stateMutability": "nonpayable",
      "type": "function"
    },
    {
      "inputs": [
        {
          "internalType": "address",
          "name": "newOwner",
          "type": "address"
        }
      ],
      "name": "transferOwnership",
      "outputs": [],
      "stateMutability": "nonpayable",
      "type": "function"
    },
    {
      "inputs": [
        {
          "internalType": "address",
          "name": "operator",
          "type": "address"
        },
        {
          "internalType": "address",
          "name": "from",
          "type": "address"
        },
        {
          "internalType": "uint256",
          "name": "tokenId",
          "type": "uint256"
        },
        {
          "internalType": "bytes",
          "name": "data",
          "type": "bytes"
        }
      ],
      "name": "onERC721Received",
      "outputs": [
        {
          "internalType": "bytes4",
          "name": "",
          "type": "bytes4"
        }
      ],
      "stateMutability": "nonpayable",
      "type": "function"
    },
    {
      "inputs": [
        {
          "internalType": "address",
          "name": "owner",
          "type": "address"
        },
        {
          "internalType": "address",
          "name": "sensor",
          "type": "address"
        },
        {
          "internalType": "uint256",
          "name": "slaThreshold",
          "type": "uint256"
        },
        {
          "internalType": "string",
          "name": "slaDescription",
          "type": "string"
        }
      ],
      "name": "registerParcel",
      "outputs": [
        {
          "internalType": "uint256",
          "name": "",
          "type": "uint256"
        }
      ],
      "stateMutability": "nonpayable",
      "type": "function"
    },
    {
      "inputs": [
        {
          "internalType": "uint256",
          "name": "tokenId",
          "type": "uint256"
        },
        {
          "internalType": "address",
          "name": "to",
          "type": "address"
        }
      ],
      "name": "initiateHandover",
      "outputs": [],
      "stateMutability": "nonpayable",
      "type": "function"
    },
    {
      "inputs": [
        {
          "internalType": "uint256",
          "name": "tokenId",
          "type": "uint256"
        }
      ],
      "name": "receiveHandover",
      "outputs": [],
      "stateMutability": "nonpayable",
      "type": "function"
    },
    {
      "inputs": [
        {
          "internalType": "uint256",
          "name": "tokenId",
          "type": "uint256"
        },
        {
          "internalType": "uint256",
          "name": "threshold",
          "type": "uint256"
        },
        {
          "internalType": "string",
          "name": "description",
          "type": "string"
        }
      ],
      "name": "setSLA",
      "outputs": [],
      "stateMutability": "nonpayable",
      "type": "function"
    },
    {
      "inputs": [
        {
          "internalType": "uint256",
          "name": "tokenId",
          "type": "uint256"
        }
      ],
      "name": "getSLA",
      "outputs": [
        {
          "internalType": "uint256",
          "name": "",
          "type": "uint256"
        },
        {
          "internalType": "bool",
          "name": "",
          "type": "bool"
        },
        {
          "internalType": "string",
          "name": "",
          "type": "string"
        }
      ],
      "stateMutability": "view",
      "type": "function"
    },
    {
      "inputs": [
        {
          "internalType": "uint256",
          "name": "tokenId",
          "type": "uint256"
        },
        {
          "internalType": "uint256",
          "name": "sensorValue",
          "type": "uint256"
        }
      ],
      "name": "checkSLAViolation",
      "outputs": [],
      "stateMutability": "nonpayable",
      "type": "function"
    }
  ],
  "bytecode": "0x608060405234801561001057600080fd5b50604051610ed5380380610ed583398101604081905261002f916100ad565b6100383361005d565b600180546001600160a01b0319166001600160a01b03929092169190911790556100dd565b600080546001600160a01b038381166001600160a01b0319831681178455604051919092169283917f8be0079c531659141344cd1fd0a4f28419497f9722a3daafe3b4186f6b6457e09190a35050565b6000602082840312156100bf57600080fd5b81516001600160a01b03811681146100d657600080fd5b9392505050565b610de9806100ec6000396000f3fe608060405234801561001057600080fd5b506004361061008e5760003560e01c80630524b4f814610093578063150b7a02146100a8578063715018a6146100d95780638da5cb5b146100e1578063a82780a1146100f6578063be3446ca14610109578063bf7792d21461012a578063c3ac352b1461014c578063f2fde38b1461015f578063fbb48f3e14610172575b600080fd5b6100a66100a136600461098b565b610185565b005b6100bb6100b6366004610a03565b61029a565b6040516001600160e01b031990911681526020015b60405180910390f35b6100a66103d5565b6100e96103e9565b6040516100d09190610a75565b6100a6610104366004610a89565b6103f8565b61011c610117366004610a03565b610481565b6040519081526020016100d0565b61013d610138366004610aab565b6105c8565b6040516100d093929190610ac4565b6100a661015a366004610b23565b6106ce565b6100a661016d366004610b75565b610741565b6100a6610180366004610aab565b6107ba565b60015460405162a4969f60e31b8152600481018490526001600160a01b038381166024830152909116908190630524b4f890604401600060405180830381600087803b1580156101d457600080fd5b505af11580156101e8573d6000803e3d6000fd5b50506040516331a9108f60e11b815260048101869052600092506001600160a01b0384169150636352211e90602401602060405180830381865afa158015610234573d6000803e3d6000fd5b505050506040513d601f19601f820116820180604052508101906102589190610b99565b9050837f84d9e94ad927798d690bea0081ec740e7e274bb467a073d57d3cf4ac19ee39ba828560405161028c929190610bb6565b60405180910390a250505050565b6001546000906001600160a01b031633146102f35760405162461bcd60e51b815260206004820152601460248201527324b73b30b634b21022a9219b9918903a37b5b2b760611b60448201526064015b60405180910390fd5b600154604051634f558e7960e01b8152600481018690526001600160a01b0390911690634f558e7990602401602060405180830381865afa15801561033c573d6000803e3d6000fd5b505050506040513d601f19601f820116820180604052508101906103609190610bd0565b61039d5760405162461bcd60e51b815260206004820152600e60248201526d125b9d985b1a59081c185c98d95b60921b60448201526064016102ea565b83600080516020610d94833981519152866040516103bb9190610a75565b60405180910390a250630a85bd0160e11b95945050505050565b6103dd6108c7565b6103e76000610926565b565b6000546001600160a01b031690565b600082116104185760405162461bcd60e51b81526004016102ea90610bf2565b6000828152600260205260409020600181015460ff1615801561043b5750805482115b1561047c576001818101805460ff1916909117905560405183907f800a4e738cdbf3afe6c7a418649d2728aee57fe5bc8309faf7b29de6543d8b6e90600090a25b505050565b600061048b6108c7565b60015460405163c21b7aab60e01b81526000916001600160a01b03169063c21b7aab906104be908a908a90600401610bb6565b6020604051808303816000875af11580156104dd573d6000803e3d6000fd5b505050506040513d601f19601f820116820180604052508101906105019190610c1c565b600081815260026020819052604090912087815560018101805460ff191690559192508101610531858783610cd3565b5081600080516020610d94833981519152896040516105509190610a75565b60405180910390a2600154604051636a109a0760e01b81526001600160a01b0389811692636a109a079261058a9290911690600401610a75565b600060405180830381600087803b1580156105a457600080fd5b505af11580156105b8573d6000803e3d6000fd5b50939a9950505050505050505050565b6000806060600084116105ed5760405162461bcd60e51b81526004016102ea90610bf2565b6000848152600260208181526040808420815160608101835281548152600182015460ff1615159381019390935292830180549293929184019161063090610c4b565b80601f016020809104026020016040519081016040528092919081815260200182805461065c90610c4b565b80156106a95780601f1061067e576101008083540402835291602001916106a9565b820191906000526020600020905b81548152906001019060200180831161068c57829003601f168201915b5050509190925250508151602083015160409093015190989297509550909350505050565b600084116106ee5760405162461bcd60e51b81526004016102ea90610bf2565b60008481526002602081905260409091208481550161070e828483610cd3565b50837f5167c3d76b41002da4052dae8c79e6a988b417714f1f2b2821d3c2618c2cf2d08460405161028c91815260200190565b6107496108c7565b6001600160a01b0381166107ae5760405162461bcd60e51b815260206004820152602660248201527f4f776e61626c653a206e6577206f776e657220697320746865207a65726f206160448201526564647265737360d01b60648201526084016102ea565b6107b781610926565b50565b600154604051637dda479f60e11b8152600481018390526001600160a01b0390911690819063fbb48f3e90602401600060405180830381600087803b15801561080257600080fd5b505af1158015610816573d6000803e3d6000fd5b50506040516331a9108f60e11b815260048101859052600092506001600160a01b0384169150636352211e90602401602060405180830381865afa158015610862573d6000803e3d6000fd5b505050506040513d601f19601f820116820180604052508101906108869190610b99565b9050827ff3ce019236bae8a126b47a1c9cbbac9f35995bccecf3ec38690536daeb4a0a7082336040516108ba929190610bb6565b60405180910390a2505050565b336108d06103e9565b6001600160a01b0316146103e75760405162461bcd60e51b815260206004820181905260248201527f4f776e61626c653a2063616c6c6572206973206e6f7420746865206f776e657260448201526064016102ea565b600080546001600160a01b038381166001600160a01b0319831681178455604051919092169283917f8be0079c531659141344cd1fd0a4f28419497f9722a3daafe3b4186f6b6457e09190a35050565b6001600160a01b03811681146107b757600080fd5b6000806040838503121561099e57600080fd5b8235915060208301356109b081610976565b809150509250929050565b60008083601f8401126109cd57600080fd5b5081356001600160401b038111156109e457600080fd5b6020830191508360208285010111156109fc57600080fd5b9250929050565b600080600080600060808688031215610a1b57600080fd5b8535610a2681610976565b94506020860135610a3681610976565b93506040860135925060608601356001600160401b03811115610a5857600080fd5b610a64888289016109bb565b969995985093965092949392505050565b6001600160a01b0391909116815260200190565b60008060408385031215610a9c57600080fd5b50508035926020909101359150565b600060208284031215610abd57600080fd5b5035919050565b838152600060208415158184015260606040840152835180606085015260005b81811015610b0057858101830151858201608001528201610ae4565b506000608082860101526080601f19601f83011685010192505050949350505050565b60008060008060608587031215610b3957600080fd5b843593506020850135925060408501356001600160401b03811115610b5d57600080fd5b610b69878288016109bb565b95989497509550505050565b600060208284031215610b8757600080fd5b8135610b9281610976565b9392505050565b600060208284031215610bab57600080fd5b8151610b9281610976565b6001600160a01b0392831681529116602082015260400190565b600060208284031215610be257600080fd5b81518015158114610b9257600080fd5b60208082526010908201526f125b9d985b1a59081d1bdad95b88125160821b604082015260600190565b600060208284031215610c2e57600080fd5b5051919050565b634e487b7160e01b600052604160045260246000fd5b600181811c90821680610c5f57607f821691505b602082108103610c7f57634e487b7160e01b600052602260045260246000fd5b50919050565b601f82111561047c57600081815260208120601f850160051c81016020861015610cac5750805b601f850160051c820191505b81811015610ccb57828155600101610cb8565b505050505050565b6001600160401b03831115610cea57610cea610c35565b610cfe83610cf88354610c4b565b83610c85565b6000601f841160018114610d325760008515610d1a5750838201355b600019600387901b1c1916600186901b178355610d8c565b600083815260209020601f19861690835b82811015610d635786850135825560209485019460019092019101610d43565b5086821015610d805760001960f88860031b161c19848701351681555b505060018560011b0183555b505050505056fe46b3d502191f3e77c6f52bbaeeac01b90291a08d1c4b49ed49006d83dff7f096a26469706673582212200b329afa1bec5c40685051a7d5e2cf720dc1e01d446c6d50cb43ea7cec2b579664736f6c63430008130033",
  "immutableReferences": {},
  "source": "// SPDX-License-Identifier: MIT\npragma solidity >=0.4.22 <0.9.0;\n\nimport \"./Sensor.sol\";\nimport \"./Parcel.sol\";\nimport \"@openzeppelin/contracts/access/Ownable.sol\";\nimport \"@openzeppelin/contracts/token/ERC721/IERC721Receiver.sol\";\n\ncontract Governance is Ownable, IERC721Receiver {\n  struct SLAData {\n        uint256 threshold;\n        bool violated;\n        string description;\n    }\n\n\n    Parcel private parcelContract;\n    mapping(uint256 => SLAData) private _slaData;\n\n    event ParcelRegistered(uint256 indexed tokenId, address owner);\n    event HandoverInitiated(uint256 indexed tokenId, address from, address to);\n    event HandoverReceived(uint256 indexed tokenId, address from, address to);\n    event SLASet(uint256 indexed tokenId, uint256 threshold);\n    event SLAViolated(uint256 indexed tokenId);\n\n    constructor(address _parcelContract) {\n        parcelContract = Parcel(_parcelContract);\n    }\n\n    function onERC721Received(address operator, address from, uint256 tokenId, bytes calldata data)\n        external\n        override\n        returns (bytes4)\n    {\n        require(msg.sender == address(parcelContract), \"Invalid ERC721 token\");\n        require(parcelContract.exists(tokenId), \"Invalid parcel\");\n        emit ParcelRegistered(tokenId, from);\n\n        return this.onERC721Received.selector;\n    }\n\nfunction registerParcel(address owner, address sensor, uint256 slaThreshold,\n    string calldata slaDescription) external onlyOwner returns(uint){\n    uint tokenId = parcelContract.registerParcel(owner, sensor);\n    // Create SLA data for the parcel\n    SLAData storage sla = _slaData[tokenId];\n        sla.threshold = slaThreshold;\n        sla.violated = false;\n        sla.description = slaDescription;\n    emit ParcelRegistered(tokenId, owner);\n    // Add the sensor to the registered parcel\n    Sensor(sensor).setParcelContract(address(parcelContract));\n    return tokenId;\n}\n\n    function initiateHandover(uint256 tokenId, address to) external {\n        Parcel parcel = Parcel(parcelContract);\n        parcel.initiateHandover(tokenId, to);\n\n        address from = parcel.ownerOf(tokenId);\n        emit HandoverInitiated(tokenId, from, to);\n    }\n\n    function receiveHandover(uint256 tokenId) external {\n        Parcel parcel = Parcel(parcelContract);\n        parcel.receiveHandover(tokenId);\n\n        address from = parcel.ownerOf(tokenId);\n        emit HandoverReceived(tokenId, from, msg.sender);\n    }\n\n    function setSLA(uint256 tokenId, uint256 threshold, string calldata description) external {\n        require(tokenId > 0, \"Invalid token ID\");\n\n        _slaData[tokenId].threshold = threshold;\n        _slaData[tokenId].description = description;\n\n        emit SLASet(tokenId, threshold);\n    }\n\n    function getSLA(uint256 tokenId) external view returns (uint256, bool, string memory) {\n        require(tokenId > 0, \"Invalid token ID\");\n\n        SLAData memory sla = _slaData[tokenId];\n        return (sla.threshold, sla.violated, sla.description);\n    }\n\n    function checkSLAViolation(uint256 tokenId, uint256 sensorValue) external {\n        require(tokenId > 0, \"Invalid token ID\");\n\n        SLAData storage sla = _slaData[tokenId];\n        if (!sla.violated && sensorValue > sla.threshold) {\n            sla.violated = true;\n            emit SLAViolated(tokenId);\n        }\n    }\n}\n",
  "sourcePath": "/home/edua/Documents/projects/parceltrack/contracts/Governance.sol",
  "compiler": {
    "name": "solc",
    "version": "0.8.19+commit.7dd6d404.Emscripten.clang"
  },
  "schemaVersion": "3.4.13",
  "updatedAt": "2023-05-24T16:12:17.767Z",
  "devdoc": {
    "kind": "dev",
    "methods": {
      "onERC721Received(address,address,uint256,bytes)": {
        "details": "Whenever an {IERC721} `tokenId` token is transferred to this contract via {IERC721-safeTransferFrom} by `operator` from `from`, this function is called. It must return its Solidity selector to confirm the token transfer. If any other value is returned or the interface is not implemented by the recipient, the transfer will be reverted. The selector can be obtained in Solidity with `IERC721Receiver.onERC721Received.selector`."
      },
      "owner()": {
        "details": "Returns the address of the current owner."
      },
      "renounceOwnership()": {
        "details": "Leaves the contract without owner. It will not be possible to call `onlyOwner` functions anymore. Can only be called by the current owner. NOTE: Renouncing ownership will leave the contract without an owner, thereby removing any functionality that is only available to the owner."
      },
      "transferOwnership(address)": {
        "details": "Transfers ownership of the contract to a new account (`newOwner`). Can only be called by the current owner."
      }
    },
    "version": 1
  },
  "userdoc": {
    "kind": "user",
    "methods": {},
    "version": 1
  }
}