{
  "contractName": "Parcel",
  "abi": [
    {
      "inputs": [],
      "stateMutability": "nonpayable",
      "type": "constructor"
    },
    {
      "anonymous": false,
      "inputs": [
        {
          "indexed": true,
          "internalType": "address",
          "name": "owner",
          "type": "address"
        },
        {
          "indexed": true,
          "internalType": "address",
          "name": "approved",
          "type": "address"
        },
        {
          "indexed": true,
          "internalType": "uint256",
          "name": "tokenId",
          "type": "uint256"
        }
      ],
      "name": "Approval",
      "type": "event"
    },
    {
      "anonymous": false,
      "inputs": [
        {
          "indexed": true,
          "internalType": "address",
          "name": "owner",
          "type": "address"
        },
        {
          "indexed": true,
          "internalType": "address",
          "name": "operator",
          "type": "address"
        },
        {
          "indexed": false,
          "internalType": "bool",
          "name": "approved",
          "type": "bool"
        }
      ],
      "name": "ApprovalForAll",
      "type": "event"
    },
    {
      "anonymous": false,
      "inputs": [
        {
          "indexed": true,
          "internalType": "uint256",
          "name": "parcelId",
          "type": "uint256"
        },
        {
          "indexed": true,
          "internalType": "address",
          "name": "owner",
          "type": "address"
        }
      ],
      "name": "ParcelRegistered",
      "type": "event"
    },
    {
      "anonymous": false,
      "inputs": [
        {
          "indexed": true,
          "internalType": "address",
          "name": "from",
          "type": "address"
        },
        {
          "indexed": true,
          "internalType": "address",
          "name": "to",
          "type": "address"
        },
        {
          "indexed": true,
          "internalType": "uint256",
          "name": "parcelId",
          "type": "uint256"
        }
      ],
      "name": "ParcelTransferred",
      "type": "event"
    },
    {
      "anonymous": false,
      "inputs": [
        {
          "indexed": true,
          "internalType": "uint256",
          "name": "_parcelId",
          "type": "uint256"
        },
        {
          "indexed": true,
          "internalType": "uint256",
          "name": "threshold",
          "type": "uint256"
        }
      ],
      "name": "SLASet",
      "type": "event"
    },
    {
      "anonymous": false,
      "inputs": [
        {
          "indexed": true,
          "internalType": "uint256",
          "name": "parcelId",
          "type": "uint256"
        },
        {
          "indexed": false,
          "internalType": "uint256",
          "name": "value",
          "type": "uint256"
        }
      ],
      "name": "SLAViolation",
      "type": "event"
    },
    {
      "anonymous": false,
      "inputs": [
        {
          "indexed": true,
          "internalType": "uint256",
          "name": "parcelId",
          "type": "uint256"
        },
        {
          "indexed": true,
          "internalType": "uint256",
          "name": "sensorId",
          "type": "uint256"
        }
      ],
      "name": "SensorActivated",
      "type": "event"
    },
    {
      "anonymous": false,
      "inputs": [
        {
          "indexed": true,
          "internalType": "uint256",
          "name": "parcelId",
          "type": "uint256"
        },
        {
          "indexed": true,
          "internalType": "uint256",
          "name": "sensorId",
          "type": "uint256"
        }
      ],
      "name": "SensorDeactivated",
      "type": "event"
    },
    {
      "anonymous": false,
      "inputs": [
        {
          "indexed": true,
          "internalType": "uint256",
          "name": "parcelId",
          "type": "uint256"
        },
        {
          "indexed": true,
          "internalType": "uint256",
          "name": "sensorId",
          "type": "uint256"
        },
        {
          "indexed": true,
          "internalType": "address",
          "name": "owner",
          "type": "address"
        }
      ],
      "name": "SensorRegistered",
      "type": "event"
    },
    {
      "anonymous": false,
      "inputs": [
        {
          "indexed": true,
          "internalType": "address",
          "name": "from",
          "type": "address"
        },
        {
          "indexed": true,
          "internalType": "address",
          "name": "to",
          "type": "address"
        },
        {
          "indexed": true,
          "internalType": "uint256",
          "name": "tokenId",
          "type": "uint256"
        }
      ],
      "name": "Transfer",
      "type": "event"
    },
    {
      "inputs": [
        {
          "internalType": "address",
          "name": "to",
          "type": "address"
        },
        {
          "internalType": "uint256",
          "name": "tokenId",
          "type": "uint256"
        }
      ],
      "name": "approve",
      "outputs": [],
      "stateMutability": "nonpayable",
      "type": "function"
    },
    {
      "inputs": [
        {
          "internalType": "address",
          "name": "owner",
          "type": "address"
        }
      ],
      "name": "balanceOf",
      "outputs": [
        {
          "internalType": "uint256",
          "name": "",
          "type": "uint256"
        }
      ],
      "stateMutability": "view",
      "type": "function"
    },
    {
      "inputs": [
        {
          "internalType": "uint256",
          "name": "tokenId",
          "type": "uint256"
        }
      ],
      "name": "getApproved",
      "outputs": [
        {
          "internalType": "address",
          "name": "",
          "type": "address"
        }
      ],
      "stateMutability": "view",
      "type": "function"
    },
    {
      "inputs": [
        {
          "internalType": "address",
          "name": "owner",
          "type": "address"
        },
        {
          "internalType": "address",
          "name": "operator",
          "type": "address"
        }
      ],
      "name": "isApprovedForAll",
      "outputs": [
        {
          "internalType": "bool",
          "name": "",
          "type": "bool"
        }
      ],
      "stateMutability": "view",
      "type": "function"
    },
    {
      "inputs": [],
      "name": "name",
      "outputs": [
        {
          "internalType": "string",
          "name": "",
          "type": "string"
        }
      ],
      "stateMutability": "view",
      "type": "function"
    },
    {
      "inputs": [
        {
          "internalType": "uint256",
          "name": "tokenId",
          "type": "uint256"
        }
      ],
      "name": "ownerOf",
      "outputs": [
        {
          "internalType": "address",
          "name": "",
          "type": "address"
        }
      ],
      "stateMutability": "view",
      "type": "function"
    },
    {
      "inputs": [
        {
          "internalType": "address",
          "name": "from",
          "type": "address"
        },
        {
          "internalType": "address",
          "name": "to",
          "type": "address"
        },
        {
          "internalType": "uint256",
          "name": "tokenId",
          "type": "uint256"
        }
      ],
      "name": "safeTransferFrom",
      "outputs": [],
      "stateMutability": "nonpayable",
      "type": "function"
    },
    {
      "inputs": [
        {
          "internalType": "address",
          "name": "from",
          "type": "address"
        },
        {
          "internalType": "address",
          "name": "to",
          "type": "address"
        },
        {
          "internalType": "uint256",
          "name": "tokenId",
          "type": "uint256"
        },
        {
          "internalType": "bytes",
          "name": "data",
          "type": "bytes"
        }
      ],
      "name": "safeTransferFrom",
      "outputs": [],
      "stateMutability": "nonpayable",
      "type": "function"
    },
    {
      "inputs": [
        {
          "internalType": "address",
          "name": "operator",
          "type": "address"
        },
        {
          "internalType": "bool",
          "name": "approved",
          "type": "bool"
        }
      ],
      "name": "setApprovalForAll",
      "outputs": [],
      "stateMutability": "nonpayable",
      "type": "function"
    },
    {
      "inputs": [
        {
          "internalType": "bytes4",
          "name": "interfaceId",
          "type": "bytes4"
        }
      ],
      "name": "supportsInterface",
      "outputs": [
        {
          "internalType": "bool",
          "name": "",
          "type": "bool"
        }
      ],
      "stateMutability": "view",
      "type": "function"
    },
    {
      "inputs": [],
      "name": "symbol",
      "outputs": [
        {
          "internalType": "string",
          "name": "",
          "type": "string"
        }
      ],
      "stateMutability": "view",
      "type": "function"
    },
    {
      "inputs": [
        {
          "internalType": "uint256",
          "name": "tokenId",
          "type": "uint256"
        }
      ],
      "name": "tokenURI",
      "outputs": [
        {
          "internalType": "string",
          "name": "",
          "type": "string"
        }
      ],
      "stateMutability": "view",
      "type": "function"
    },
    {
      "inputs": [
        {
          "internalType": "address",
          "name": "from",
          "type": "address"
        },
        {
          "internalType": "address",
          "name": "to",
          "type": "address"
        },
        {
          "internalType": "uint256",
          "name": "tokenId",
          "type": "uint256"
        }
      ],
      "name": "transferFrom",
      "outputs": [],
      "stateMutability": "nonpayable",
      "type": "function"
    },
    {
      "inputs": [
        {
          "internalType": "address",
          "name": "_sensorContract",
          "type": "address"
        }
      ],
      "name": "setSensorContract",
      "outputs": [],
      "stateMutability": "nonpayable",
      "type": "function"
    },
    {
      "inputs": [
        {
          "internalType": "address",
          "name": "_destination",
          "type": "address"
        },
        {
          "internalType": "string",
          "name": "_slaDescription",
          "type": "string"
        },
        {
          "internalType": "uint256",
          "name": "_slaThreshold",
          "type": "uint256"
        }
      ],
      "name": "registerParcel",
      "outputs": [
        {
          "internalType": "uint256",
          "name": "",
          "type": "uint256"
        }
      ],
      "stateMutability": "nonpayable",
      "type": "function"
    },
    {
      "inputs": [
        {
          "internalType": "uint256",
          "name": "_parcelId",
          "type": "uint256"
        }
      ],
      "name": "attachSensor",
      "outputs": [
        {
          "internalType": "uint256",
          "name": "",
          "type": "uint256"
        }
      ],
      "stateMutability": "nonpayable",
      "type": "function"
    },
    {
      "inputs": [
        {
          "internalType": "uint256",
          "name": "_parcelId",
          "type": "uint256"
        }
      ],
      "name": "activateSensor",
      "outputs": [],
      "stateMutability": "nonpayable",
      "type": "function"
    },
    {
      "inputs": [
        {
          "internalType": "uint256",
          "name": "_parcelId",
          "type": "uint256"
        }
      ],
      "name": "deactivateSensor",
      "outputs": [],
      "stateMutability": "nonpayable",
      "type": "function"
    },
    {
      "inputs": [
        {
          "internalType": "uint256",
          "name": "_parcelId",
          "type": "uint256"
        },
        {
          "internalType": "uint256",
          "name": "value",
          "type": "uint256"
        }
      ],
      "name": "logValue",
      "outputs": [],
      "stateMutability": "nonpayable",
      "type": "function"
    },
    {
      "inputs": [
        {
          "internalType": "uint256",
          "name": "_parcelId",
          "type": "uint256"
        },
        {
          "internalType": "uint256",
          "name": "threshold",
          "type": "uint256"
        },
        {
          "internalType": "string",
          "name": "description",
          "type": "string"
        }
      ],
      "name": "setSLA",
      "outputs": [],
      "stateMutability": "nonpayable",
      "type": "function"
    },
    {
      "inputs": [
        {
          "internalType": "uint256",
          "name": "tokenId",
          "type": "uint256"
        }
      ],
      "name": "getSLA",
      "outputs": [
        {
          "internalType": "uint256",
          "name": "",
          "type": "uint256"
        },
        {
          "internalType": "bool",
          "name": "",
          "type": "bool"
        },
        {
          "internalType": "string",
          "name": "",
          "type": "string"
        }
      ],
      "stateMutability": "view",
      "type": "function"
    },
    {
      "inputs": [
        {
          "internalType": "uint256",
          "name": "tokenId",
          "type": "uint256"
        }
      ],
      "name": "checkSLAViolation",
      "outputs": [
        {
          "internalType": "bool",
          "name": "",
          "type": "bool"
        }
      ],
      "stateMutability": "view",
      "type": "function"
    },
    {
      "inputs": [
        {
          "internalType": "address",
          "name": "_to",
          "type": "address"
        },
        {
          "internalType": "uint256",
          "name": "_parcelId",
          "type": "uint256"
        }
      ],
      "name": "approveTransfer",
      "outputs": [],
      "stateMutability": "nonpayable",
      "type": "function"
    },
    {
      "inputs": [
        {
          "internalType": "address",
          "name": "_from",
          "type": "address"
        },
        {
          "internalType": "address",
          "name": "_to",
          "type": "address"
        },
        {
          "internalType": "uint256",
          "name": "_parcelId",
          "type": "uint256"
        }
      ],
      "name": "transferParcel",
      "outputs": [],
      "stateMutability": "nonpayable",
      "type": "function"
    },
    {
      "inputs": [
        {
          "internalType": "uint256",
          "name": "_parcelId",
          "type": "uint256"
        }
      ],
      "name": "_isSLAViolationFree",
      "outputs": [
        {
          "internalType": "bool",
          "name": "",
          "type": "bool"
        }
      ],
      "stateMutability": "view",
      "type": "function"
    },
    {
      "inputs": [
        {
          "internalType": "uint256",
          "name": "_parcelId",
          "type": "uint256"
        }
      ],
      "name": "isSLAViolated",
      "outputs": [
        {
          "internalType": "bool",
          "name": "",
          "type": "bool"
        }
      ],
      "stateMutability": "view",
      "type": "function"
    },
    {
      "inputs": [
        {
          "internalType": "uint256",
          "name": "_parcelId",
          "type": "uint256"
        }
      ],
      "name": "getParcelOwner",
      "outputs": [
        {
          "internalType": "address",
          "name": "",
          "type": "address"
        }
      ],
      "stateMutability": "view",
      "type": "function"
    },
    {
      "inputs": [
        {
          "internalType": "uint256",
          "name": "_parcelId",
          "type": "uint256"
        }
      ],
      "name": "getParcelDestination",
      "outputs": [
        {
          "internalType": "address",
          "name": "",
          "type": "address"
        }
      ],
      "stateMutability": "view",
      "type": "function"
    },
    {
      "inputs": [
        {
          "internalType": "uint256",
          "name": "_parcelId",
          "type": "uint256"
        }
      ],
      "name": "getDeliveryStatus",
      "outputs": [
        {
          "internalType": "uint256",
          "name": "",
          "type": "uint256"
        }
      ],
      "stateMutability": "view",
      "type": "function"
    },
    {
      "inputs": [
        {
          "internalType": "uint256",
          "name": "_parcelId",
          "type": "uint256"
        }
      ],
      "name": "getSensorStatus",
      "outputs": [
        {
          "internalType": "bool",
          "name": "",
          "type": "bool"
        }
      ],
      "stateMutability": "view",
      "type": "function"
    },
    {
      "inputs": [],
      "name": "getLatestParcelId",
      "outputs": [
        {
          "internalType": "uint256",
          "name": "",
          "type": "uint256"
        }
      ],
      "stateMutability": "nonpayable",
      "type": "function"
    }
  ],
  "bytecode": "0x60806040523480156200001157600080fd5b506040518060400160405280600681526020016514185c98d95b60d21b815250604051806040016040528060038152602001621410d360ea1b81525081600090816200005e91906200011b565b5060016200006d82826200011b565b505050620001e7565b634e487b7160e01b600052604160045260246000fd5b600181811c90821680620000a157607f821691505b602082108103620000c257634e487b7160e01b600052602260045260246000fd5b50919050565b601f8211156200011657600081815260208120601f850160051c81016020861015620000f15750805b601f850160051c820191505b818110156200011257828155600101620000fd565b5050505b505050565b81516001600160401b0381111562000137576200013762000076565b6200014f816200014884546200008c565b84620000c8565b602080601f8311600181146200018757600084156200016e5750858301515b600019600386901b1c1916600185901b17855562000112565b600085815260208120601f198616915b82811015620001b85788860151825594840194600190910190840162000197565b5085821015620001d75787850151600019600388901b60f8161c191681555b5050505050600190811b01905550565b61223880620001f76000396000f3fe608060405234801561001057600080fd5b50600436106101755760003560e01c806301ffc9a71461017a578063051252c2146101a257806306fdde03146101b7578063081812fc146101cc578063095ea7b3146101f75780631993e8521461020a57806323b872dd1461021c57806342842e0e1461022f578063532cf197146102425780635520a92d1461025557806360707fd6146102685780636352211e1461027b57806363de673d1461028e5780636b19e4fd1461028e57806370a08231146102b4578063837f5e00146102c757806395d89b41146102da578063a22cb465146102e2578063ae473ca0146102f5578063b582dfb914610321578063b88d4fde14610334578063bf7792d214610347578063c3ac352b14610369578063c87b56dd1461037c578063d673775f1461038f578063e25a875e146103a2578063e985e9c5146103c5578063f2a71127146103d8578063fa02c4b7146103eb578063fb00b755146103fe578063fda28a1b14610411575b600080fd5b61018d610188366004611968565b610424565b60405190151581526020015b60405180910390f35b6101b56101b0366004611985565b610476565b005b6101bf61065e565b60405161019991906119ee565b6101df6101da366004611985565b6106f0565b6040516001600160a01b039091168152602001610199565b6101b5610205366004611a1d565b610717565b6006545b604051908152602001610199565b6101b561022a366004611a47565b61082c565b6101b561023d366004611a47565b61085d565b6101b5610250366004611985565b610878565b6101b5610263366004611a83565b610a56565b6101b5610276366004611a47565b610ace565b6101df610289366004611985565b610be0565b61018d61029c366004611985565b60009081526009602052604090206002015460ff1690565b61020e6102c2366004611a83565b610c14565b61018d6102d5366004611985565b610c9a565b6101bf610d07565b6101b56102f0366004611aac565b610d16565b6101df610303366004611985565b6000908152600860205260409020600101546001600160a01b031690565b6101b561032f366004611ae3565b610d25565b6101b5610342366004611b90565b610d9a565b61035a610355366004611985565b610dd2565b60405161019993929190611c0b565b6101b5610377366004611c35565b610ebe565b6101bf61038a366004611985565b610f28565b61018d61039d366004611985565b610f9c565b61020e6103b0366004611985565b60009081526008602052604090206002015490565b61018d6103d3366004611cb4565b610fb5565b61020e6103e6366004611985565b610fe3565b6101b56103f9366004611a1d565b6110cc565b6101df61040c366004611985565b61116d565b61020e61041f366004611ce7565b611178565b60006001600160e01b031982166380ac58cd60e01b148061045557506001600160e01b03198216635b5e139f60e01b145b8061047057506301ffc9a760e01b6001600160e01b03198316145b92915050565b61047f81611284565b6104a45760405162461bcd60e51b815260040161049b90611d51565b60405180910390fd5b6007546040516241bfaf60e91b8152600481018390526001600160a01b039091169063837f5e0090602401602060405180830381865afa1580156104ec573d6000803e3d6000fd5b505050506040513d601f19601f820116820180604052508101906105109190611d80565b61055c5760405162461bcd60e51b815260206004820152601d60248201527f53656e736f7220697320616c7265616479206465616374697661746564000000604482015260640161049b565b600754604051630289296160e11b8152600481018390526001600160a01b039091169063051252c290602401600060405180830381600087803b1580156105a257600080fd5b505af11580156105b6573d6000803e3d6000fd5b5050600754604051635257421160e11b815260048101859052600093506001600160a01b03909116915063a4ae842290602401602060405180830381865afa158015610606573d6000803e3d6000fd5b505050506040513d601f19601f8201168201806040525081019061062a9190611d9d565b905080827ff71acd4a1e8eff3ec7460df37678191a84341b56d68d0ca6aa868b5a05f1921d60405160405180910390a35050565b60606000805461066d90611db6565b80601f016020809104026020016040519081016040528092919081815260200182805461069990611db6565b80156106e65780601f106106bb576101008083540402835291602001916106e6565b820191906000526020600020905b8154815290600101906020018083116106c957829003601f168201915b5050505050905090565b60006106fb826112a1565b506000908152600460205260409020546001600160a01b031690565b600061072282610be0565b9050806001600160a01b0316836001600160a01b03160361078f5760405162461bcd60e51b815260206004820152602160248201527f4552433732313a20617070726f76616c20746f2063757272656e74206f776e656044820152603960f91b606482015260840161049b565b336001600160a01b03821614806107ab57506107ab8133610fb5565b61081d5760405162461bcd60e51b815260206004820152603d60248201527f4552433732313a20617070726f76652063616c6c6572206973206e6f7420746f60448201527f6b656e206f776e6572206f7220617070726f76656420666f7220616c6c000000606482015260840161049b565b61082783836112c9565b505050565b6108363382611325565b6108525760405162461bcd60e51b815260040161049b90611df0565b610827838383611384565b61082783838360405180602001604052806000815250610d9a565b61088181611284565b61089d5760405162461bcd60e51b815260040161049b90611d51565b6007546040516241bfaf60e91b8152600481018390526001600160a01b039091169063837f5e0090602401602060405180830381865afa1580156108e5573d6000803e3d6000fd5b505050506040513d601f19601f820116820180604052508101906109099190611d80565b156109545760405162461bcd60e51b815260206004820152601b60248201527a14d95b9cdbdc881a5cc8185b1c9958591e481858dd1a5d985d1959602a1b604482015260640161049b565b60075460405163532cf19760e01b8152600481018390526001600160a01b039091169063532cf19790602401600060405180830381600087803b15801561099a57600080fd5b505af11580156109ae573d6000803e3d6000fd5b5050600754604051635257421160e11b815260048101859052600093506001600160a01b03909116915063a4ae842290602401602060405180830381865afa1580156109fe573d6000803e3d6000fd5b505050506040513d601f19601f82011682018060405250810190610a229190611d9d565b905080827f5ef8373582e76a47a4d907f313148907befbde22494b24ed6b2066f87829bb1860405160405180910390a35050565b6001600160a01b038116610aac5760405162461bcd60e51b815260206004820152601f60248201527f496e76616c69642050617263656c20636f6e7472616374206164647265737300604482015260640161049b565b600780546001600160a01b0319166001600160a01b0392909216919091179055565b610ad83382611325565b610b1c5760405162461bcd60e51b8152602060048201526015602482015274151c985b9cd9995c881b9bdd08185c1c1c9bdd9959605a1b604482015260640161049b565b610b2581610f9c565b610b6a5760405162461bcd60e51b815260206004820152601660248201527514d310481d9a5bdb185d1a5bdb8819195d1958dd195960521b604482015260640161049b565b610b7381611284565b610b8f5760405162461bcd60e51b815260040161049b90611d51565b610b9a838383611384565b80826001600160a01b0316846001600160a01b03167fddb8782a220f993431f4ec4881d5306cf7603f70e88c3bc8635823a3a80348ee60405160405180910390a4505050565b600080610bec836114d6565b90506001600160a01b0381166104705760405162461bcd60e51b815260040161049b90611e3d565b60006001600160a01b038216610c7e5760405162461bcd60e51b815260206004820152602960248201527f4552433732313a2061646472657373207a65726f206973206e6f7420612076616044820152683634b21037bbb732b960b91b606482015260840161049b565b506001600160a01b031660009081526003602052604090205490565b6007546040516241bfaf60e91b8152600481018390526000916001600160a01b03169063837f5e0090602401602060405180830381865afa158015610ce3573d6000803e3d6000fd5b505050506040513d601f19601f820116820180604052508101906104709190611d80565b60606001805461066d90611db6565b610d213383836114f1565b5050565b600082815260096020526040902060010154811115610d215760008281526009602052604090819020600201805460ff191660011790555182907ff261b5d7e6d53ae91b41293cc643d0d9f5279547ea4718ec69460c100a48d05990610d8e9084815260200190565b60405180910390a25050565b610da43383611325565b610dc05760405162461bcd60e51b815260040161049b90611df0565b610dcc848484846115bb565b50505050565b6000806060600060096000868152602001908152602001600020604051806060016040529081600082018054610e0790611db6565b80601f0160208091040260200160405190810160405280929190818152602001828054610e3390611db6565b8015610e805780601f10610e5557610100808354040283529160200191610e80565b820191906000526020600020905b815481529060010190602001808311610e6357829003601f168201915b5050509183525050600182015460208083019190915260029092015460ff161515604091820152908201519082015191519097919650945092505050565b600084815260096020526040902060018101849055610ede828483611ed2565b50600084815260096020526040808220600201805460ff1916905551849186917f5167c3d76b41002da4052dae8c79e6a988b417714f1f2b2821d3c2618c2cf2d09190a350505050565b6060610f33826112a1565b6000610f4a60408051602081019091526000815290565b90506000815111610f6a5760405180602001604052806000815250610f95565b80610f74846115ee565b604051602001610f85929190611f8c565b6040516020818303038152906040525b9392505050565b60009081526009602052604090206002015460ff161590565b6001600160a01b03918216600090815260056020908152604080832093909416825291909152205460ff1690565b6000610fee82611284565b61100a5760405162461bcd60e51b815260040161049b90611d51565b6000828152600960205260408082206001015460075491516305951dd760e11b815260048101869052602481018290529092916001600160a01b031690630b2a3bae906044016020604051808303816000875af115801561106f573d6000803e3d6000fd5b505050506040513d601f19601f820116820180604052508101906110939190611d9d565b6040519091503390829086907f3aebb5f64f714472cc633cf75b25feb471468765159e9dea36e2b4587945a66290600090a49392505050565b60006110d782610be0565b90506110e33383611325565b61112f5760405162461bcd60e51b815260206004820152601e60248201527f596f7520617265206e6f7420616c6c6f77656420746f20617070726f76650000604482015260640161049b565b61113983836112c9565b81836001600160a01b0316826001600160a01b03166000805160206121e383398151915260405160405180910390a4505050565b600061047082610be0565b600680546000918291908261118c83611fbb565b9091555060008181526008602090815260408083208054336001600160a01b03199182161782556001820180549091166001600160a01b038c1617905560028101849055815160608101835280830185905289815280840189905285855260099093529220815193945091929091829181906112089082611fe2565b50602082015160018201556040909101516002909101805460ff19169115159190911790556112373384611680565b6006805490600061124783611fbb565b9091555050604051339084907f46b3d502191f3e77c6f52bbaeeac01b90291a08d1c4b49ed49006d83dff7f09690600090a3509095945050505050565b600080611290836114d6565b6001600160a01b0316141592915050565b6112aa81611284565b6112c65760405162461bcd60e51b815260040161049b90611e3d565b50565b600081815260046020526040902080546001600160a01b0319166001600160a01b03841690811790915581906112fe82610be0565b6001600160a01b03166000805160206121e383398151915260405160405180910390a45050565b60008061133183610be0565b9050806001600160a01b0316846001600160a01b0316148061135857506113588185610fb5565b8061137c5750836001600160a01b0316611371846106f0565b6001600160a01b0316145b949350505050565b826001600160a01b031661139782610be0565b6001600160a01b0316146113bd5760405162461bcd60e51b815260040161049b9061209b565b6001600160a01b03821661141f5760405162461bcd60e51b8152602060048201526024808201527f4552433732313a207472616e7366657220746f20746865207a65726f206164646044820152637265737360e01b606482015260840161049b565b826001600160a01b031661143282610be0565b6001600160a01b0316146114585760405162461bcd60e51b815260040161049b9061209b565b600081815260046020908152604080832080546001600160a01b03199081169091556001600160a01b0387811680865260038552838620805460001901905590871680865283862080546001019055868652600290945282852080549092168417909155905184936000805160206121c383398151915291a4505050565b6000908152600260205260409020546001600160a01b031690565b816001600160a01b0316836001600160a01b03160361154e5760405162461bcd60e51b815260206004820152601960248201527822a9219b99189d1030b8383937bb32903a379031b0b63632b960391b604482015260640161049b565b6001600160a01b03838116600081815260056020908152604080832094871680845294825291829020805460ff191686151590811790915591519182527f17307eab39ab6107e8899845ad3d59bd9653f200f220920489ca2b5937696c31910160405180910390a3505050565b6115c6848484611384565b6115d28484848461177b565b610dcc5760405162461bcd60e51b815260040161049b906120e0565b606060006115fb8361187c565b60010190506000816001600160401b0381111561161a5761161a611b05565b6040519080825280601f01601f191660200182016040528015611644576020820181803683370190505b5090508181016020015b600019016f181899199a1a9b1b9c1cb0b131b232b360811b600a86061a8153600a850494508461164e57509392505050565b6001600160a01b0382166116d65760405162461bcd60e51b815260206004820181905260248201527f4552433732313a206d696e7420746f20746865207a65726f2061646472657373604482015260640161049b565b6116df81611284565b156116fc5760405162461bcd60e51b815260040161049b90612132565b61170581611284565b156117225760405162461bcd60e51b815260040161049b90612132565b6001600160a01b038216600081815260036020908152604080832080546001019055848352600290915280822080546001600160a01b0319168417905551839291906000805160206121c3833981519152908290a45050565b60006001600160a01b0384163b1561187157604051630a85bd0160e11b81526001600160a01b0385169063150b7a02906117bf903390899088908890600401612168565b6020604051808303816000875af19250505080156117fa575060408051601f3d908101601f191682019092526117f7918101906121a5565b60015b611857573d808015611828576040519150601f19603f3d011682016040523d82523d6000602084013e61182d565b606091505b50805160000361184f5760405162461bcd60e51b815260040161049b906120e0565b805181602001fd5b6001600160e01b031916630a85bd0160e11b14905061137c565b506001949350505050565b60008072184f03e93ff9f4daa797ed6e38ed64bf6a1f0160401b83106118bb5772184f03e93ff9f4daa797ed6e38ed64bf6a1f0160401b830492506040015b6904ee2d6d415b85acef8160201b83106118e5576904ee2d6d415b85acef8160201b830492506020015b662386f26fc10000831061190357662386f26fc10000830492506010015b6305f5e100831061191b576305f5e100830492506008015b612710831061192f57612710830492506004015b60648310611941576064830492506002015b600a83106104705760010192915050565b6001600160e01b0319811681146112c657600080fd5b60006020828403121561197a57600080fd5b8135610f9581611952565b60006020828403121561199757600080fd5b5035919050565b60005b838110156119b95781810151838201526020016119a1565b50506000910152565b600081518084526119da81602086016020860161199e565b601f01601f19169290920160200192915050565b602081526000610f9560208301846119c2565b80356001600160a01b0381168114611a1857600080fd5b919050565b60008060408385031215611a3057600080fd5b611a3983611a01565b946020939093013593505050565b600080600060608486031215611a5c57600080fd5b611a6584611a01565b9250611a7360208501611a01565b9150604084013590509250925092565b600060208284031215611a9557600080fd5b610f9582611a01565b80151581146112c657600080fd5b60008060408385031215611abf57600080fd5b611ac883611a01565b91506020830135611ad881611a9e565b809150509250929050565b60008060408385031215611af657600080fd5b50508035926020909101359150565b634e487b7160e01b600052604160045260246000fd5b60006001600160401b0380841115611b3557611b35611b05565b604051601f8501601f19908116603f01168101908282118183101715611b5d57611b5d611b05565b81604052809350858152868686011115611b7657600080fd5b858560208301376000602087830101525050509392505050565b60008060008060808587031215611ba657600080fd5b611baf85611a01565b9350611bbd60208601611a01565b92506040850135915060608501356001600160401b03811115611bdf57600080fd5b8501601f81018713611bf057600080fd5b611bff87823560208401611b1b565b91505092959194509250565b8381528215156020820152606060408201526000611c2c60608301846119c2565b95945050505050565b60008060008060608587031215611c4b57600080fd5b843593506020850135925060408501356001600160401b0380821115611c7057600080fd5b818701915087601f830112611c8457600080fd5b813581811115611c9357600080fd5b886020828501011115611ca557600080fd5b95989497505060200194505050565b60008060408385031215611cc757600080fd5b611cd083611a01565b9150611cde60208401611a01565b90509250929050565b600080600060608486031215611cfc57600080fd5b611d0584611a01565b925060208401356001600160401b03811115611d2057600080fd5b8401601f81018613611d3157600080fd5b611d4086823560208401611b1b565b925050604084013590509250925092565b60208082526015908201527414185c98d95b08191bd95cc81b9bdd08195e1a5cdd605a1b604082015260600190565b600060208284031215611d9257600080fd5b8151610f9581611a9e565b600060208284031215611daf57600080fd5b5051919050565b600181811c90821680611dca57607f821691505b602082108103611dea57634e487b7160e01b600052602260045260246000fd5b50919050565b6020808252602d908201527f4552433732313a2063616c6c6572206973206e6f7420746f6b656e206f776e6560408201526c1c881bdc88185c1c1c9bdd9959609a1b606082015260800190565b602080825260189082015277115490cdcc8c4e881a5b9d985b1a59081d1bdad95b88125160421b604082015260600190565b601f82111561082757600081815260208120601f850160051c81016020861015611e965750805b601f850160051c820191505b81811015611eb557828155600101611ea2565b505050505050565b600019600383901b1c191660019190911b1790565b6001600160401b03831115611ee957611ee9611b05565b611efd83611ef78354611db6565b83611e6f565b6000601f841160018114611f2b5760008515611f195750838201355b611f238682611ebd565b845550611f85565b600083815260209020601f19861690835b82811015611f5c5786850135825560209485019460019092019101611f3c565b5086821015611f795760001960f88860031b161c19848701351681555b505060018560011b0183555b5050505050565b60008351611f9e81846020880161199e565b835190830190611fb281836020880161199e565b01949350505050565b600060018201611fdb57634e487b7160e01b600052601160045260246000fd5b5060010190565b81516001600160401b03811115611ffb57611ffb611b05565b61200f816120098454611db6565b84611e6f565b602080601f83116001811461203e576000841561202c5750858301515b6120368582611ebd565b865550611eb5565b600085815260208120601f198616915b8281101561206d5788860151825594840194600190910190840161204e565b508582101561208b5787850151600019600388901b60f8161c191681555b5050505050600190811b01905550565b60208082526025908201527f4552433732313a207472616e736665722066726f6d20696e636f72726563742060408201526437bbb732b960d91b606082015260800190565b60208082526032908201527f4552433732313a207472616e7366657220746f206e6f6e20455243373231526560408201527131b2b4bb32b91034b6b83632b6b2b73a32b960711b606082015260800190565b6020808252601c908201527b115490cdcc8c4e881d1bdad95b88185b1c9958591e481b5a5b9d195960221b604082015260600190565b6001600160a01b038581168252841660208201526040810183905260806060820181905260009061219b908301846119c2565b9695505050505050565b6000602082840312156121b757600080fd5b8151610f958161195256feddf252ad1be2c89b69c2b068fc378daa952ba7f163c4a11628f55a4df523b3ef8c5be1e5ebec7d5bd14f71427d1e84f3dd0314c0f7b2291e5b200ac8c7c3b925a2646970667358221220a5d30e9b0f09fff2051837d115b35d3d79e0b551a59d900a4b2a9f75d708a5c864736f6c63430008130033",
  "immutableReferences": {},
  "source": "pragma solidity >=0.4.22 <0.9.0;\n\nimport \"./Sensor.sol\";\n\nimport \"@openzeppelin/contracts/token/ERC721/ERC721.sol\";\n\ncontract Parcel is ERC721 {\n    \n    uint256 private _parcelIds;\n    \n    Sensor private sensorContract;\n\n    struct SLA {\n        string description;\n        uint256 threshold;\n        bool violated;\n    }\n\n    struct ParcelData {\n        address currentOwner;\n        address destination;\n        uint256 deliveryStatus; // 0: InTransit, 1: Delivered\n    }\n\n    mapping(uint256 => ParcelData) private parcels;\n    mapping(uint256 => SLA) private slas;\n\n    event ParcelRegistered(uint256 indexed parcelId, address indexed owner);\n    event ParcelTransferred(address indexed from, address indexed to, uint256 indexed parcelId);\n    event SensorRegistered(uint256 indexed parcelId, uint256 indexed sensorId, address indexed owner);\n    event SensorActivated(uint256 indexed parcelId, uint256 indexed sensorId);\n    event SensorDeactivated(uint256 indexed parcelId, uint256 indexed sensorId);\n    event SLASet(uint indexed _parcelId, uint indexed threshold);\n    event SLAViolation(uint256 indexed parcelId, uint value);\n\n    constructor() ERC721(\"Parcel\", \"PCL\") {}\n\n    function setSensorContract(address _sensorContract) external {\n        require(_sensorContract != address(0), \"Invalid Parcel contract address\");\n        sensorContract = Sensor(_sensorContract);\n    }\n\n    function registerParcel(\n        address _destination,\n        string memory _slaDescription,\n        uint256 _slaThreshold\n    ) public returns (uint256) {\n        uint256 parcelId =_parcelIds++;\n\n        ParcelData storage parcel = parcels[parcelId];\n        parcel.currentOwner = msg.sender;\n        parcel.destination = _destination;\n        parcel.deliveryStatus = 0;\n\n        SLA memory newSLA;\n        newSLA.description = _slaDescription;\n        newSLA.threshold = _slaThreshold;\n        slas[parcelId] = newSLA;\n\n        _mint(msg.sender, parcelId);\n        _parcelIds++;\n\n        emit ParcelRegistered(parcelId, msg.sender);\n\n        return parcelId;\n    }\n\n    function attachSensor(uint256 _parcelId) public returns (uint256) {\n        require(_exists(_parcelId), \"Parcel does not exist\");\n        uint threshold = slas[_parcelId].threshold;\n        uint256 sensorId = sensorContract.attachSensor(_parcelId, threshold);\n        emit SensorRegistered(_parcelId, sensorId, msg.sender);\n\n        return sensorId;\n    }\n\n    function activateSensor(uint256 _parcelId) public {\n        require(_exists(_parcelId), \"Parcel does not exist\");\n        require(!(sensorContract.getSensorStatus(_parcelId)), \"Sensor is already activated\");\n\n        sensorContract.activateSensor(_parcelId);\n        uint sensorId = sensorContract.getSensorId(_parcelId);\n        emit SensorActivated(_parcelId, sensorId);\n    }\n\n    function deactivateSensor(uint256 _parcelId) public {\n        require(_exists(_parcelId), \"Parcel does not exist\");\n        require((sensorContract.getSensorStatus(_parcelId)), \"Sensor is already deactivated\");\n\n        sensorContract.deactivateSensor(_parcelId);\n        uint sensorId = sensorContract.getSensorId(_parcelId);\n\n        emit SensorDeactivated(_parcelId, sensorId);\n    }\n\n\n    function logValue(uint _parcelId, uint value) external {\n        if(value > slas[_parcelId].threshold) {\n            slas[_parcelId].violated = true;\n            emit SLAViolation(_parcelId, value);\n        }\n    }\n\n\n    function setSLA(uint256 _parcelId, uint256 threshold, string calldata description) external {\n        slas[_parcelId].threshold = threshold;\n        slas[_parcelId].description = description;\n        slas[_parcelId].violated = false;\n\n        emit SLASet(_parcelId, threshold);\n    }\n\n    function getSLA(uint256 tokenId) external view returns (uint256, bool, string memory) {\n\n        SLA memory sla = slas[tokenId];\n        return (sla.threshold, sla.violated, sla.description);\n    }\n\n    function checkSLAViolation(uint256 tokenId) public view returns (bool) {\n        return slas[tokenId].violated;\n    }\n\n    function approveTransfer(address _to, uint256 _parcelId) public {\n        address owner = ownerOf(_parcelId);\n        require(_isApprovedOrOwner(msg.sender, _parcelId), \"You are not allowed to approve\");\n\n        _approve(_to, _parcelId);\n        emit Approval(owner, _to, _parcelId);\n    }\n\n    function transferParcel(\n        address _from,\n        address _to,\n        uint256 _parcelId\n    ) public {\n        require(_isApprovedOrOwner(msg.sender, _parcelId), \"Transfer not approved\");\n        require(_isSLAViolationFree(_parcelId), \"SLA violation detected\");\n        require(_exists(_parcelId), \"Parcel does not exist\");\n\n        _transfer(_from, _to, _parcelId);\n        emit ParcelTransferred(_from, _to, _parcelId);\n    }\n\n    function _isSLAViolationFree(uint256 _parcelId) public view returns (bool) {\n        return !slas[_parcelId].violated;\n    }\n\n    function isSLAViolated(uint256 _parcelId) public view returns (bool) {\n        return slas[_parcelId].violated;\n    }\n\n    function getParcelOwner(uint256 _parcelId) public view returns (address) {\n        return ownerOf(_parcelId);\n    }\n\n    function getParcelDestination(uint256 _parcelId) public view returns (address) {\n        return parcels[_parcelId].destination;\n    }\n\n    function getDeliveryStatus(uint256 _parcelId) public view returns (uint256) {\n        return parcels[_parcelId].deliveryStatus;\n    }\n\n    function getSensorStatus(uint256 _parcelId) public view returns (bool) {\n        return sensorContract.getSensorStatus(_parcelId);\n    }\n\n    function getLatestParcelId() public returns (uint256) {\n        return uint256(_parcelIds);\n    }\n\n}",
  "sourcePath": "/home/edua/Documents/projects/parceltrack/contracts/Parcel.sol",
  "compiler": {
    "name": "solc",
    "version": "0.8.19+commit.7dd6d404.Emscripten.clang"
  },
  "schemaVersion": "3.4.13",
  "updatedAt": "2023-06-17T03:03:10.269Z",
  "devdoc": {
    "events": {
      "Approval(address,address,uint256)": {
        "details": "Emitted when `owner` enables `approved` to manage the `tokenId` token."
      },
      "ApprovalForAll(address,address,bool)": {
        "details": "Emitted when `owner` enables or disables (`approved`) `operator` to manage all of its assets."
      },
      "Transfer(address,address,uint256)": {
        "details": "Emitted when `tokenId` token is transferred from `from` to `to`."
      }
    },
    "kind": "dev",
    "methods": {
      "approve(address,uint256)": {
        "details": "See {IERC721-approve}."
      },
      "balanceOf(address)": {
        "details": "See {IERC721-balanceOf}."
      },
      "getApproved(uint256)": {
        "details": "See {IERC721-getApproved}."
      },
      "isApprovedForAll(address,address)": {
        "details": "See {IERC721-isApprovedForAll}."
      },
      "name()": {
        "details": "See {IERC721Metadata-name}."
      },
      "ownerOf(uint256)": {
        "details": "See {IERC721-ownerOf}."
      },
      "safeTransferFrom(address,address,uint256)": {
        "details": "See {IERC721-safeTransferFrom}."
      },
      "safeTransferFrom(address,address,uint256,bytes)": {
        "details": "See {IERC721-safeTransferFrom}."
      },
      "setApprovalForAll(address,bool)": {
        "details": "See {IERC721-setApprovalForAll}."
      },
      "supportsInterface(bytes4)": {
        "details": "See {IERC165-supportsInterface}."
      },
      "symbol()": {
        "details": "See {IERC721Metadata-symbol}."
      },
      "tokenURI(uint256)": {
        "details": "See {IERC721Metadata-tokenURI}."
      },
      "transferFrom(address,address,uint256)": {
        "details": "See {IERC721-transferFrom}."
      }
    },
    "version": 1
  },
  "userdoc": {
    "kind": "user",
    "methods": {},
    "version": 1
  }
}