{
  "contractName": "Parcel",
  "abi": [
    {
      "inputs": [
        {
          "internalType": "string",
          "name": "name",
          "type": "string"
        },
        {
          "internalType": "string",
          "name": "symbol",
          "type": "string"
        }
      ],
      "stateMutability": "nonpayable",
      "type": "constructor"
    },
    {
      "anonymous": false,
      "inputs": [
        {
          "indexed": true,
          "internalType": "address",
          "name": "owner",
          "type": "address"
        },
        {
          "indexed": true,
          "internalType": "address",
          "name": "approved",
          "type": "address"
        },
        {
          "indexed": true,
          "internalType": "uint256",
          "name": "tokenId",
          "type": "uint256"
        }
      ],
      "name": "Approval",
      "type": "event"
    },
    {
      "anonymous": false,
      "inputs": [
        {
          "indexed": true,
          "internalType": "address",
          "name": "owner",
          "type": "address"
        },
        {
          "indexed": true,
          "internalType": "address",
          "name": "operator",
          "type": "address"
        },
        {
          "indexed": false,
          "internalType": "bool",
          "name": "approved",
          "type": "bool"
        }
      ],
      "name": "ApprovalForAll",
      "type": "event"
    },
    {
      "anonymous": false,
      "inputs": [
        {
          "indexed": true,
          "internalType": "uint256",
          "name": "tokenId",
          "type": "uint256"
        },
        {
          "indexed": false,
          "internalType": "address",
          "name": "from",
          "type": "address"
        },
        {
          "indexed": false,
          "internalType": "address",
          "name": "to",
          "type": "address"
        }
      ],
      "name": "HandoverInitiated",
      "type": "event"
    },
    {
      "anonymous": false,
      "inputs": [
        {
          "indexed": true,
          "internalType": "uint256",
          "name": "tokenId",
          "type": "uint256"
        },
        {
          "indexed": false,
          "internalType": "address",
          "name": "from",
          "type": "address"
        },
        {
          "indexed": false,
          "internalType": "address",
          "name": "to",
          "type": "address"
        }
      ],
      "name": "HandoverReceived",
      "type": "event"
    },
    {
      "anonymous": false,
      "inputs": [
        {
          "indexed": true,
          "internalType": "address",
          "name": "previousOwner",
          "type": "address"
        },
        {
          "indexed": true,
          "internalType": "address",
          "name": "newOwner",
          "type": "address"
        }
      ],
      "name": "OwnershipTransferred",
      "type": "event"
    },
    {
      "anonymous": false,
      "inputs": [
        {
          "indexed": true,
          "internalType": "uint256",
          "name": "tokenId",
          "type": "uint256"
        },
        {
          "indexed": false,
          "internalType": "address",
          "name": "owner",
          "type": "address"
        }
      ],
      "name": "ParcelRegistered",
      "type": "event"
    },
    {
      "anonymous": false,
      "inputs": [
        {
          "indexed": true,
          "internalType": "address",
          "name": "from",
          "type": "address"
        },
        {
          "indexed": true,
          "internalType": "address",
          "name": "to",
          "type": "address"
        },
        {
          "indexed": true,
          "internalType": "uint256",
          "name": "tokenId",
          "type": "uint256"
        }
      ],
      "name": "Transfer",
      "type": "event"
    },
    {
      "inputs": [
        {
          "internalType": "address",
          "name": "to",
          "type": "address"
        },
        {
          "internalType": "uint256",
          "name": "tokenId",
          "type": "uint256"
        }
      ],
      "name": "approve",
      "outputs": [],
      "stateMutability": "nonpayable",
      "type": "function"
    },
    {
      "inputs": [
        {
          "internalType": "uint256",
          "name": "tokenId",
          "type": "uint256"
        }
      ],
      "name": "getApproved",
      "outputs": [
        {
          "internalType": "address",
          "name": "",
          "type": "address"
        }
      ],
      "stateMutability": "view",
      "type": "function"
    },
    {
      "inputs": [
        {
          "internalType": "address",
          "name": "owner",
          "type": "address"
        },
        {
          "internalType": "address",
          "name": "operator",
          "type": "address"
        }
      ],
      "name": "isApprovedForAll",
      "outputs": [
        {
          "internalType": "bool",
          "name": "",
          "type": "bool"
        }
      ],
      "stateMutability": "view",
      "type": "function"
    },
    {
      "inputs": [],
      "name": "name",
      "outputs": [
        {
          "internalType": "string",
          "name": "",
          "type": "string"
        }
      ],
      "stateMutability": "view",
      "type": "function"
    },
    {
      "inputs": [],
      "name": "owner",
      "outputs": [
        {
          "internalType": "address",
          "name": "",
          "type": "address"
        }
      ],
      "stateMutability": "view",
      "type": "function"
    },
    {
      "inputs": [],
      "name": "renounceOwnership",
      "outputs": [],
      "stateMutability": "nonpayable",
      "type": "function"
    },
    {
      "inputs": [
        {
          "internalType": "address",
          "name": "operator",
          "type": "address"
        },
        {
          "internalType": "bool",
          "name": "approved",
          "type": "bool"
        }
      ],
      "name": "setApprovalForAll",
      "outputs": [],
      "stateMutability": "nonpayable",
      "type": "function"
    },
    {
      "inputs": [
        {
          "internalType": "bytes4",
          "name": "interfaceId",
          "type": "bytes4"
        }
      ],
      "name": "supportsInterface",
      "outputs": [
        {
          "internalType": "bool",
          "name": "",
          "type": "bool"
        }
      ],
      "stateMutability": "view",
      "type": "function"
    },
    {
      "inputs": [],
      "name": "symbol",
      "outputs": [
        {
          "internalType": "string",
          "name": "",
          "type": "string"
        }
      ],
      "stateMutability": "view",
      "type": "function"
    },
    {
      "inputs": [
        {
          "internalType": "uint256",
          "name": "tokenId",
          "type": "uint256"
        }
      ],
      "name": "tokenURI",
      "outputs": [
        {
          "internalType": "string",
          "name": "",
          "type": "string"
        }
      ],
      "stateMutability": "view",
      "type": "function"
    },
    {
      "inputs": [
        {
          "internalType": "address",
          "name": "newOwner",
          "type": "address"
        }
      ],
      "name": "transferOwnership",
      "outputs": [],
      "stateMutability": "nonpayable",
      "type": "function"
    },
    {
      "inputs": [],
      "name": "registerParcel",
      "outputs": [],
      "stateMutability": "nonpayable",
      "type": "function"
    },
    {
      "inputs": [
        {
          "internalType": "uint256",
          "name": "tokenId",
          "type": "uint256"
        },
        {
          "internalType": "address",
          "name": "to",
          "type": "address"
        }
      ],
      "name": "initiateHandover",
      "outputs": [],
      "stateMutability": "nonpayable",
      "type": "function"
    },
    {
      "inputs": [
        {
          "internalType": "uint256",
          "name": "tokenId",
          "type": "uint256"
        }
      ],
      "name": "receiveHandover",
      "outputs": [],
      "stateMutability": "nonpayable",
      "type": "function"
    },
    {
      "inputs": [],
      "name": "getTokenCounter",
      "outputs": [
        {
          "internalType": "uint256",
          "name": "",
          "type": "uint256"
        }
      ],
      "stateMutability": "view",
      "type": "function"
    },
    {
      "inputs": [],
      "name": "_getNextTokenId",
      "outputs": [
        {
          "internalType": "uint256",
          "name": "",
          "type": "uint256"
        }
      ],
      "stateMutability": "nonpayable",
      "type": "function"
    },
    {
      "inputs": [],
      "name": "getNextTokenId",
      "outputs": [
        {
          "internalType": "uint256",
          "name": "",
          "type": "uint256"
        }
      ],
      "stateMutability": "nonpayable",
      "type": "function"
    },
    {
      "inputs": [
        {
          "internalType": "address",
          "name": "to",
          "type": "address"
        }
      ],
      "name": "safeMint",
      "outputs": [],
      "stateMutability": "nonpayable",
      "type": "function"
    },
    {
      "inputs": [
        {
          "internalType": "address",
          "name": "owner",
          "type": "address"
        }
      ],
      "name": "balanceOf",
      "outputs": [
        {
          "internalType": "uint256",
          "name": "",
          "type": "uint256"
        }
      ],
      "stateMutability": "view",
      "type": "function"
    },
    {
      "inputs": [
        {
          "internalType": "uint256",
          "name": "tokenId",
          "type": "uint256"
        }
      ],
      "name": "ownerOf",
      "outputs": [
        {
          "internalType": "address",
          "name": "",
          "type": "address"
        }
      ],
      "stateMutability": "view",
      "type": "function"
    },
    {
      "inputs": [
        {
          "internalType": "address",
          "name": "from",
          "type": "address"
        },
        {
          "internalType": "address",
          "name": "to",
          "type": "address"
        },
        {
          "internalType": "uint256",
          "name": "tokenId",
          "type": "uint256"
        }
      ],
      "name": "safeTransferFrom",
      "outputs": [],
      "stateMutability": "nonpayable",
      "type": "function"
    },
    {
      "inputs": [
        {
          "internalType": "address",
          "name": "from",
          "type": "address"
        },
        {
          "internalType": "address",
          "name": "to",
          "type": "address"
        },
        {
          "internalType": "uint256",
          "name": "tokenId",
          "type": "uint256"
        },
        {
          "internalType": "bytes",
          "name": "data",
          "type": "bytes"
        }
      ],
      "name": "safeTransferFrom",
      "outputs": [],
      "stateMutability": "nonpayable",
      "type": "function"
    },
    {
      "inputs": [
        {
          "internalType": "address",
          "name": "from",
          "type": "address"
        },
        {
          "internalType": "address",
          "name": "to",
          "type": "address"
        },
        {
          "internalType": "uint256",
          "name": "tokenId",
          "type": "uint256"
        }
      ],
      "name": "transferFrom",
      "outputs": [],
      "stateMutability": "nonpayable",
      "type": "function"
    }
  ],
  "bytecode": "0x60806040523480156200001157600080fd5b506040516200389c3803806200389c8339818101604052810190620000379190620002e8565b818181600090816200004a9190620005b8565b5080600190816200005c9190620005b8565b5050506200007f620000736200008760201b60201c565b6200008f60201b60201c565b50506200069f565b600033905090565b6000600660009054906101000a900473ffffffffffffffffffffffffffffffffffffffff16905081600660006101000a81548173ffffffffffffffffffffffffffffffffffffffff021916908373ffffffffffffffffffffffffffffffffffffffff1602179055508173ffffffffffffffffffffffffffffffffffffffff168173ffffffffffffffffffffffffffffffffffffffff167f8be0079c531659141344cd1fd0a4f28419497f9722a3daafe3b4186f6b6457e060405160405180910390a35050565b6000604051905090565b600080fd5b600080fd5b600080fd5b600080fd5b6000601f19601f8301169050919050565b7f4e487b7100000000000000000000000000000000000000000000000000000000600052604160045260246000fd5b620001be8262000173565b810181811067ffffffffffffffff82111715620001e057620001df62000184565b5b80604052505050565b6000620001f562000155565b9050620002038282620001b3565b919050565b600067ffffffffffffffff82111562000226576200022562000184565b5b620002318262000173565b9050602081019050919050565b60005b838110156200025e57808201518184015260208101905062000241565b60008484015250505050565b6000620002816200027b8462000208565b620001e9565b905082815260208101848484011115620002a0576200029f6200016e565b5b620002ad8482856200023e565b509392505050565b600082601f830112620002cd57620002cc62000169565b5b8151620002df8482602086016200026a565b91505092915050565b600080604083850312156200030257620003016200015f565b5b600083015167ffffffffffffffff81111562000323576200032262000164565b5b6200033185828601620002b5565b925050602083015167ffffffffffffffff81111562000355576200035462000164565b5b6200036385828601620002b5565b9150509250929050565b600081519050919050565b7f4e487b7100000000000000000000000000000000000000000000000000000000600052602260045260246000fd5b60006002820490506001821680620003c057607f821691505b602082108103620003d657620003d562000378565b5b50919050565b60008190508160005260206000209050919050565b60006020601f8301049050919050565b600082821b905092915050565b600060088302620004407fffffffffffffffffffffffffffffffffffffffffffffffffffffffffffffffff8262000401565b6200044c868362000401565b95508019841693508086168417925050509392505050565b6000819050919050565b6000819050919050565b600062000499620004936200048d8462000464565b6200046e565b62000464565b9050919050565b6000819050919050565b620004b58362000478565b620004cd620004c482620004a0565b8484546200040e565b825550505050565b600090565b620004e4620004d5565b620004f1818484620004aa565b505050565b5b8181101562000519576200050d600082620004da565b600181019050620004f7565b5050565b601f82111562000568576200053281620003dc565b6200053d84620003f1565b810160208510156200054d578190505b620005656200055c85620003f1565b830182620004f6565b50505b505050565b600082821c905092915050565b60006200058d600019846008026200056d565b1980831691505092915050565b6000620005a883836200057a565b9150826002028217905092915050565b620005c3826200036d565b67ffffffffffffffff811115620005df57620005de62000184565b5b620005eb8254620003a7565b620005f88282856200051d565b600060209050601f8311600181146200063057600084156200061b578287015190505b6200062785826200059a565b86555062000697565b601f1984166200064086620003dc565b60005b828110156200066a5784890151825560018201915060208501945060208101905062000643565b868310156200068a578489015162000686601f8916826200057a565b8355505b6001600288020188555050505b505050505050565b6131ed80620006af6000396000f3fe608060405234801561001057600080fd5b506004361061014d5760003560e01c8063715018a6116100c3578063b88d4fde1161007c578063b88d4fde14610364578063c87b56dd14610380578063caa0f92a146103b0578063e985e9c5146103ce578063f2fde38b146103fe578063fbb48f3e1461041a5761014d565b8063715018a6146102da578063879de1e9146102e45780638da5cb5b146102ee57806395d89b411461030c578063972d1ae21461032a578063a22cb465146103485761014d565b806323b872dd1161011557806323b872dd1461020857806340d097c31461022457806342842e0e146102405780636352211e1461025c5780636e02007d1461028c57806370a08231146102aa5761014d565b806301ffc9a7146101525780630524b4f81461018257806306fdde031461019e578063081812fc146101bc578063095ea7b3146101ec575b600080fd5b61016c60048036038101906101679190612071565b610436565b60405161017991906120b9565b60405180910390f35b61019c60048036038101906101979190612168565b610518565b005b6101a6610619565b6040516101b39190612238565b60405180910390f35b6101d660048036038101906101d1919061225a565b6106ab565b6040516101e39190612296565b60405180910390f35b610206600480360381019061020191906122b1565b6106f1565b005b610222600480360381019061021d91906122f1565b610808565b005b61023e60048036038101906102399190612344565b6108d0565b005b61025a600480360381019061025591906122f1565b6108fb565b005b6102766004803603810190610271919061225a565b6109c3565b6040516102839190612296565b60405180910390f35b610294610a1d565b6040516102a19190612380565b60405180910390f35b6102c460048036038101906102bf9190612344565b610a27565b6040516102d19190612380565b60405180910390f35b6102e2610aa7565b005b6102ec610abb565b005b6102f6610b24565b6040516103039190612296565b60405180910390f35b610314610b4e565b6040516103219190612238565b60405180910390f35b610332610be0565b60405161033f9190612380565b60405180910390f35b610362600480360381019061035d91906123c7565b610c06565b005b61037e6004803603810190610379919061253c565b610c1c565b005b61039a6004803603810190610395919061225a565b610c7e565b6040516103a79190612238565b60405180910390f35b6103b8610ce6565b6040516103c59190612380565b60405180910390f35b6103e860048036038101906103e391906125bf565b610cf5565b6040516103f591906120b9565b60405180910390f35b61041860048036038101906104139190612344565b610d89565b005b610434600480360381019061042f919061225a565b610e0c565b005b60007f80ac58cd000000000000000000000000000000000000000000000000000000007bffffffffffffffffffffffffffffffffffffffffffffffffffffffff1916827bffffffffffffffffffffffffffffffffffffffffffffffffffffffff1916148061050157507f5b5e139f000000000000000000000000000000000000000000000000000000007bffffffffffffffffffffffffffffffffffffffffffffffffffffffff1916827bffffffffffffffffffffffffffffffffffffffffffffffffffffffff1916145b80610511575061051082610f20565b5b9050919050565b6105223383610f8a565b610561576040517f08c379a000000000000000000000000000000000000000000000000000000000815260040161055890612671565b60405180910390fd5b600073ffffffffffffffffffffffffffffffffffffffff168173ffffffffffffffffffffffffffffffffffffffff16036105d0576040517f08c379a00000000000000000000000000000000000000000000000000000000081526004016105c7906126dd565b60405180910390fd5b817f84d9e94ad927798d690bea0081ec740e7e274bb467a073d57d3cf4ac19ee39ba33836040516106029291906126fd565b60405180910390a261061533828461101f565b5050565b60606000805461062890612755565b80601f016020809104026020016040519081016040528092919081815260200182805461065490612755565b80156106a15780601f10610676576101008083540402835291602001916106a1565b820191906000526020600020905b81548152906001019060200180831161068457829003601f168201915b5050505050905090565b60006106b682611318565b6004600083815260200190815260200160002060009054906101000a900473ffffffffffffffffffffffffffffffffffffffff169050919050565b60006106fc82611363565b90508073ffffffffffffffffffffffffffffffffffffffff168373ffffffffffffffffffffffffffffffffffffffff160361076c576040517f08c379a0000000000000000000000000000000000000000000000000000000008152600401610763906127f8565b60405180910390fd5b8073ffffffffffffffffffffffffffffffffffffffff1661078b6113e9565b73ffffffffffffffffffffffffffffffffffffffff1614806107ba57506107b9816107b46113e9565b610cf5565b5b6107f9576040517f08c379a00000000000000000000000000000000000000000000000000000000081526004016107f09061288a565b60405180910390fd5b61080383836113f1565b505050565b6108123382610f8a565b610851576040517f08c379a0000000000000000000000000000000000000000000000000000000008152600401610848906128f6565b60405180910390fd5b600073ffffffffffffffffffffffffffffffffffffffff168273ffffffffffffffffffffffffffffffffffffffff16036108c0576040517f08c379a00000000000000000000000000000000000000000000000000000000081526004016108b7906126dd565b60405180910390fd5b6108cb8383836114aa565b505050565b6108e6600160085461150a90919063ffffffff16565b6008819055506108f881600854611520565b50565b6109053382610f8a565b610944576040517f08c379a000000000000000000000000000000000000000000000000000000000815260040161093b906128f6565b60405180910390fd5b600073ffffffffffffffffffffffffffffffffffffffff168273ffffffffffffffffffffffffffffffffffffffff16036109b3576040517f08c379a00000000000000000000000000000000000000000000000000000000081526004016109aa906126dd565b60405180910390fd5b6109be83838361153e565b505050565b60006109ce8261155e565b610a0d576040517f08c379a0000000000000000000000000000000000000000000000000000000008152600401610a0490612962565b60405180910390fd5b610a1682611363565b9050919050565b6000600854905090565b60008073ffffffffffffffffffffffffffffffffffffffff168273ffffffffffffffffffffffffffffffffffffffff1603610a97576040517f08c379a0000000000000000000000000000000000000000000000000000000008152600401610a8e906129ce565b60405180910390fd5b610aa08261159f565b9050919050565b610aaf611656565b610ab960006116d4565b565b6000610ac5610be0565b9050610ad13382611520565b6000600760008381526020019081526020016000209050817f46b3d502191f3e77c6f52bbaeeac01b90291a08d1c4b49ed49006d83dff7f09633604051610b189190612296565b60405180910390a25050565b6000600660009054906101000a900473ffffffffffffffffffffffffffffffffffffffff16905090565b606060018054610b5d90612755565b80601f0160208091040260200160405190810160405280929190818152602001828054610b8990612755565b8015610bd65780601f10610bab57610100808354040283529160200191610bd6565b820191906000526020600020905b815481529060010190602001808311610bb957829003601f168201915b5050505050905090565b6000610bf8600160085461150a90919063ffffffff16565b600881905550600854905090565b610c18610c116113e9565b838361179a565b5050565b610c2d610c276113e9565b83610f8a565b610c6c576040517f08c379a0000000000000000000000000000000000000000000000000000000008152600401610c6390612a60565b60405180910390fd5b610c7884848484611906565b50505050565b6060610c8982611318565b6000610c93611962565b90506000815111610cb35760405180602001604052806000815250610cde565b80610cbd84611979565b604051602001610cce929190612abc565b6040516020818303038152906040525b915050919050565b6000610cf0610be0565b905090565b6000600560008473ffffffffffffffffffffffffffffffffffffffff1673ffffffffffffffffffffffffffffffffffffffff16815260200190815260200160002060008373ffffffffffffffffffffffffffffffffffffffff1673ffffffffffffffffffffffffffffffffffffffff16815260200190815260200160002060009054906101000a900460ff16905092915050565b610d91611656565b600073ffffffffffffffffffffffffffffffffffffffff168173ffffffffffffffffffffffffffffffffffffffff1603610e00576040517f08c379a0000000000000000000000000000000000000000000000000000000008152600401610df790612b52565b60405180910390fd5b610e09816116d4565b50565b610e158161155e565b610e54576040517f08c379a0000000000000000000000000000000000000000000000000000000008152600401610e4b90612962565b60405180910390fd5b3373ffffffffffffffffffffffffffffffffffffffff16610e74826109c3565b73ffffffffffffffffffffffffffffffffffffffff1603610eca576040517f08c379a0000000000000000000000000000000000000000000000000000000008152600401610ec190612bbe565b60405180910390fd5b6000610ed5826109c3565b9050817ff3ce019236bae8a126b47a1c9cbbac9f35995bccecf3ec38690536daeb4a0a708233604051610f099291906126fd565b60405180910390a2610f1c81338461101f565b5050565b60007f01ffc9a7000000000000000000000000000000000000000000000000000000007bffffffffffffffffffffffffffffffffffffffffffffffffffffffff1916827bffffffffffffffffffffffffffffffffffffffffffffffffffffffff1916149050919050565b600080610f9683611363565b90508073ffffffffffffffffffffffffffffffffffffffff168473ffffffffffffffffffffffffffffffffffffffff161480610fd85750610fd78185610cf5565b5b8061101657508373ffffffffffffffffffffffffffffffffffffffff16610ffe846106ab565b73ffffffffffffffffffffffffffffffffffffffff16145b91505092915050565b8273ffffffffffffffffffffffffffffffffffffffff1661103f82611363565b73ffffffffffffffffffffffffffffffffffffffff1614611095576040517f08c379a000000000000000000000000000000000000000000000000000000000815260040161108c90612c50565b60405180910390fd5b600073ffffffffffffffffffffffffffffffffffffffff168273ffffffffffffffffffffffffffffffffffffffff1603611104576040517f08c379a00000000000000000000000000000000000000000000000000000000081526004016110fb90612ce2565b60405180910390fd5b6111118383836001611a47565b8273ffffffffffffffffffffffffffffffffffffffff1661113182611363565b73ffffffffffffffffffffffffffffffffffffffff1614611187576040517f08c379a000000000000000000000000000000000000000000000000000000000815260040161117e90612c50565b60405180910390fd5b6004600082815260200190815260200160002060006101000a81549073ffffffffffffffffffffffffffffffffffffffff02191690556001600360008573ffffffffffffffffffffffffffffffffffffffff1673ffffffffffffffffffffffffffffffffffffffff168152602001908152602001600020600082825403925050819055506001600360008473ffffffffffffffffffffffffffffffffffffffff1673ffffffffffffffffffffffffffffffffffffffff16815260200190815260200160002060008282540192505081905550816002600083815260200190815260200160002060006101000a81548173ffffffffffffffffffffffffffffffffffffffff021916908373ffffffffffffffffffffffffffffffffffffffff160217905550808273ffffffffffffffffffffffffffffffffffffffff168473ffffffffffffffffffffffffffffffffffffffff167fddf252ad1be2c89b69c2b068fc378daa952ba7f163c4a11628f55a4df523b3ef60405160405180910390a46113138383836001611a4d565b505050565b6113218161155e565b611360576040517f08c379a000000000000000000000000000000000000000000000000000000000815260040161135790612d4e565b60405180910390fd5b50565b60008061136f83611a53565b9050600073ffffffffffffffffffffffffffffffffffffffff168173ffffffffffffffffffffffffffffffffffffffff16036113e0576040517f08c379a00000000000000000000000000000000000000000000000000000000081526004016113d790612d4e565b60405180910390fd5b80915050919050565b600033905090565b816004600083815260200190815260200160002060006101000a81548173ffffffffffffffffffffffffffffffffffffffff021916908373ffffffffffffffffffffffffffffffffffffffff160217905550808273ffffffffffffffffffffffffffffffffffffffff1661146483611363565b73ffffffffffffffffffffffffffffffffffffffff167f8c5be1e5ebec7d5bd14f71427d1e84f3dd0314c0f7b2291e5b200ac8c7c3b92560405160405180910390a45050565b6114bb6114b56113e9565b82610f8a565b6114fa576040517f08c379a00000000000000000000000000000000000000000000000000000000081526004016114f190612a60565b60405180910390fd5b61150583838361101f565b505050565b600081836115189190612d9d565b905092915050565b61153a828260405180602001604052806000815250611a90565b5050565b61155983838360405180602001604052806000815250610c1c565b505050565b60008073ffffffffffffffffffffffffffffffffffffffff1661158083611a53565b73ffffffffffffffffffffffffffffffffffffffff1614159050919050565b60008073ffffffffffffffffffffffffffffffffffffffff168273ffffffffffffffffffffffffffffffffffffffff160361160f576040517f08c379a000000000000000000000000000000000000000000000000000000000815260040161160690612e43565b60405180910390fd5b600360008373ffffffffffffffffffffffffffffffffffffffff1673ffffffffffffffffffffffffffffffffffffffff168152602001908152602001600020549050919050565b61165e6113e9565b73ffffffffffffffffffffffffffffffffffffffff1661167c610b24565b73ffffffffffffffffffffffffffffffffffffffff16146116d2576040517f08c379a00000000000000000000000000000000000000000000000000000000081526004016116c990612eaf565b60405180910390fd5b565b6000600660009054906101000a900473ffffffffffffffffffffffffffffffffffffffff16905081600660006101000a81548173ffffffffffffffffffffffffffffffffffffffff021916908373ffffffffffffffffffffffffffffffffffffffff1602179055508173ffffffffffffffffffffffffffffffffffffffff168173ffffffffffffffffffffffffffffffffffffffff167f8be0079c531659141344cd1fd0a4f28419497f9722a3daafe3b4186f6b6457e060405160405180910390a35050565b8173ffffffffffffffffffffffffffffffffffffffff168373ffffffffffffffffffffffffffffffffffffffff1603611808576040517f08c379a00000000000000000000000000000000000000000000000000000000081526004016117ff90612f1b565b60405180910390fd5b80600560008573ffffffffffffffffffffffffffffffffffffffff1673ffffffffffffffffffffffffffffffffffffffff16815260200190815260200160002060008473ffffffffffffffffffffffffffffffffffffffff1673ffffffffffffffffffffffffffffffffffffffff16815260200190815260200160002060006101000a81548160ff0219169083151502179055508173ffffffffffffffffffffffffffffffffffffffff168373ffffffffffffffffffffffffffffffffffffffff167f17307eab39ab6107e8899845ad3d59bd9653f200f220920489ca2b5937696c31836040516118f991906120b9565b60405180910390a3505050565b61191184848461101f565b61191d84848484611aeb565b61195c576040517f08c379a000000000000000000000000000000000000000000000000000000000815260040161195390612fad565b60405180910390fd5b50505050565b606060405180602001604052806000815250905090565b60606000600161198884611c72565b01905060008167ffffffffffffffff8111156119a7576119a6612411565b5b6040519080825280601f01601f1916602001820160405280156119d95781602001600182028036833780820191505090505b509050600082602001820190505b600115611a3c578080600190039150507f3031323334353637383961626364656600000000000000000000000000000000600a86061a8153600a8581611a3057611a2f612fcd565b5b049450600085036119e7575b819350505050919050565b50505050565b50505050565b60006002600083815260200190815260200160002060009054906101000a900473ffffffffffffffffffffffffffffffffffffffff169050919050565b611a9a8383611dc5565b611aa76000848484611aeb565b611ae6576040517f08c379a0000000000000000000000000000000000000000000000000000000008152600401611add90612fad565b60405180910390fd5b505050565b6000611b0c8473ffffffffffffffffffffffffffffffffffffffff16611fe2565b15611c65578373ffffffffffffffffffffffffffffffffffffffff1663150b7a02611b356113e9565b8786866040518563ffffffff1660e01b8152600401611b579493929190613051565b6020604051808303816000875af1925050508015611b9357506040513d601f19601f82011682018060405250810190611b9091906130b2565b60015b611c15573d8060008114611bc3576040519150601f19603f3d011682016040523d82523d6000602084013e611bc8565b606091505b506000815103611c0d576040517f08c379a0000000000000000000000000000000000000000000000000000000008152600401611c0490612fad565b60405180910390fd5b805181602001fd5b63150b7a0260e01b7bffffffffffffffffffffffffffffffffffffffffffffffffffffffff1916817bffffffffffffffffffffffffffffffffffffffffffffffffffffffff191614915050611c6a565b600190505b949350505050565b600080600090507a184f03e93ff9f4daa797ed6e38ed64bf6a1f0100000000000000008310611cd0577a184f03e93ff9f4daa797ed6e38ed64bf6a1f0100000000000000008381611cc657611cc5612fcd565b5b0492506040810190505b6d04ee2d6d415b85acef81000000008310611d0d576d04ee2d6d415b85acef81000000008381611d0357611d02612fcd565b5b0492506020810190505b662386f26fc100008310611d3c57662386f26fc100008381611d3257611d31612fcd565b5b0492506010810190505b6305f5e1008310611d65576305f5e1008381611d5b57611d5a612fcd565b5b0492506008810190505b6127108310611d8a576127108381611d8057611d7f612fcd565b5b0492506004810190505b60648310611dad5760648381611da357611da2612fcd565b5b0492506002810190505b600a8310611dbc576001810190505b80915050919050565b600073ffffffffffffffffffffffffffffffffffffffff168273ffffffffffffffffffffffffffffffffffffffff1603611e34576040517f08c379a0000000000000000000000000000000000000000000000000000000008152600401611e2b9061312b565b60405180910390fd5b611e3d8161155e565b15611e7d576040517f08c379a0000000000000000000000000000000000000000000000000000000008152600401611e7490613197565b60405180910390fd5b611e8b600083836001611a47565b611e948161155e565b15611ed4576040517f08c379a0000000000000000000000000000000000000000000000000000000008152600401611ecb90613197565b60405180910390fd5b6001600360008473ffffffffffffffffffffffffffffffffffffffff1673ffffffffffffffffffffffffffffffffffffffff16815260200190815260200160002060008282540192505081905550816002600083815260200190815260200160002060006101000a81548173ffffffffffffffffffffffffffffffffffffffff021916908373ffffffffffffffffffffffffffffffffffffffff160217905550808273ffffffffffffffffffffffffffffffffffffffff16600073ffffffffffffffffffffffffffffffffffffffff167fddf252ad1be2c89b69c2b068fc378daa952ba7f163c4a11628f55a4df523b3ef60405160405180910390a4611fde600083836001611a4d565b5050565b6000808273ffffffffffffffffffffffffffffffffffffffff163b119050919050565b6000604051905090565b600080fd5b600080fd5b60007fffffffff0000000000000000000000000000000000000000000000000000000082169050919050565b61204e81612019565b811461205957600080fd5b50565b60008135905061206b81612045565b92915050565b6000602082840312156120875761208661200f565b5b60006120958482850161205c565b91505092915050565b60008115159050919050565b6120b38161209e565b82525050565b60006020820190506120ce60008301846120aa565b92915050565b6000819050919050565b6120e7816120d4565b81146120f257600080fd5b50565b600081359050612104816120de565b92915050565b600073ffffffffffffffffffffffffffffffffffffffff82169050919050565b60006121358261210a565b9050919050565b6121458161212a565b811461215057600080fd5b50565b6000813590506121628161213c565b92915050565b6000806040838503121561217f5761217e61200f565b5b600061218d858286016120f5565b925050602061219e85828601612153565b9150509250929050565b600081519050919050565b600082825260208201905092915050565b60005b838110156121e25780820151818401526020810190506121c7565b60008484015250505050565b6000601f19601f8301169050919050565b600061220a826121a8565b61221481856121b3565b93506122248185602086016121c4565b61222d816121ee565b840191505092915050565b6000602082019050818103600083015261225281846121ff565b905092915050565b6000602082840312156122705761226f61200f565b5b600061227e848285016120f5565b91505092915050565b6122908161212a565b82525050565b60006020820190506122ab6000830184612287565b92915050565b600080604083850312156122c8576122c761200f565b5b60006122d685828601612153565b92505060206122e7858286016120f5565b9150509250929050565b60008060006060848603121561230a5761230961200f565b5b600061231886828701612153565b935050602061232986828701612153565b925050604061233a868287016120f5565b9150509250925092565b60006020828403121561235a5761235961200f565b5b600061236884828501612153565b91505092915050565b61237a816120d4565b82525050565b60006020820190506123956000830184612371565b92915050565b6123a48161209e565b81146123af57600080fd5b50565b6000813590506123c18161239b565b92915050565b600080604083850312156123de576123dd61200f565b5b60006123ec85828601612153565b92505060206123fd858286016123b2565b9150509250929050565b600080fd5b600080fd5b7f4e487b7100000000000000000000000000000000000000000000000000000000600052604160045260246000fd5b612449826121ee565b810181811067ffffffffffffffff8211171561246857612467612411565b5b80604052505050565b600061247b612005565b90506124878282612440565b919050565b600067ffffffffffffffff8211156124a7576124a6612411565b5b6124b0826121ee565b9050602081019050919050565b82818337600083830152505050565b60006124df6124da8461248c565b612471565b9050828152602081018484840111156124fb576124fa61240c565b5b6125068482856124bd565b509392505050565b600082601f83011261252357612522612407565b5b81356125338482602086016124cc565b91505092915050565b600080600080608085870312156125565761255561200f565b5b600061256487828801612153565b945050602061257587828801612153565b9350506040612586878288016120f5565b925050606085013567ffffffffffffffff8111156125a7576125a6612014565b5b6125b38782880161250e565b91505092959194509250565b600080604083850312156125d6576125d561200f565b5b60006125e485828601612153565b92505060206125f585828601612153565b9150509250929050565b7f4f6e6c79207468652063757272656e74206f776e65722063616e20696e69746960008201527f61746520612068616e646f766572000000000000000000000000000000000000602082015250565b600061265b602e836121b3565b9150612666826125ff565b604082019050919050565b6000602082019050818103600083015261268a8161264e565b9050919050565b7f496e76616c696420726563697069656e74206164647265737300000000000000600082015250565b60006126c76019836121b3565b91506126d282612691565b602082019050919050565b600060208201905081810360008301526126f6816126ba565b9050919050565b60006040820190506127126000830185612287565b61271f6020830184612287565b9392505050565b7f4e487b7100000000000000000000000000000000000000000000000000000000600052602260045260246000fd5b6000600282049050600182168061276d57607f821691505b6020821081036127805761277f612726565b5b50919050565b7f4552433732313a20617070726f76616c20746f2063757272656e74206f776e6560008201527f7200000000000000000000000000000000000000000000000000000000000000602082015250565b60006127e26021836121b3565b91506127ed82612786565b604082019050919050565b60006020820190508181036000830152612811816127d5565b9050919050565b7f4552433732313a20617070726f76652063616c6c6572206973206e6f7420746f60008201527f6b656e206f776e6572206f7220617070726f76656420666f7220616c6c000000602082015250565b6000612874603d836121b3565b915061287f82612818565b604082019050919050565b600060208201905081810360008301526128a381612867565b9050919050565b7f4e6f7420617070726f766564206f72206f776e65720000000000000000000000600082015250565b60006128e06015836121b3565b91506128eb826128aa565b602082019050919050565b6000602082019050818103600083015261290f816128d3565b9050919050565b7f546f6b656e20646f6573206e6f74206578697374000000000000000000000000600082015250565b600061294c6014836121b3565b915061295782612916565b602082019050919050565b6000602082019050818103600083015261297b8161293f565b9050919050565b7f496e76616c696420616464726573730000000000000000000000000000000000600082015250565b60006129b8600f836121b3565b91506129c382612982565b602082019050919050565b600060208201905081810360008301526129e7816129ab565b9050919050565b7f4552433732313a2063616c6c6572206973206e6f7420746f6b656e206f776e6560008201527f72206f7220617070726f76656400000000000000000000000000000000000000602082015250565b6000612a4a602d836121b3565b9150612a55826129ee565b604082019050919050565b60006020820190508181036000830152612a7981612a3d565b9050919050565b600081905092915050565b6000612a96826121a8565b612aa08185612a80565b9350612ab08185602086016121c4565b80840191505092915050565b6000612ac88285612a8b565b9150612ad48284612a8b565b91508190509392505050565b7f4f776e61626c653a206e6577206f776e657220697320746865207a65726f206160008201527f6464726573730000000000000000000000000000000000000000000000000000602082015250565b6000612b3c6026836121b3565b9150612b4782612ae0565b604082019050919050565b60006020820190508181036000830152612b6b81612b2f565b9050919050565b7f596f7520616c7265616479206f776e207468652070617263656c000000000000600082015250565b6000612ba8601a836121b3565b9150612bb382612b72565b602082019050919050565b60006020820190508181036000830152612bd781612b9b565b9050919050565b7f4552433732313a207472616e736665722066726f6d20696e636f72726563742060008201527f6f776e6572000000000000000000000000000000000000000000000000000000602082015250565b6000612c3a6025836121b3565b9150612c4582612bde565b604082019050919050565b60006020820190508181036000830152612c6981612c2d565b9050919050565b7f4552433732313a207472616e7366657220746f20746865207a65726f2061646460008201527f7265737300000000000000000000000000000000000000000000000000000000602082015250565b6000612ccc6024836121b3565b9150612cd782612c70565b604082019050919050565b60006020820190508181036000830152612cfb81612cbf565b9050919050565b7f4552433732313a20696e76616c696420746f6b656e2049440000000000000000600082015250565b6000612d386018836121b3565b9150612d4382612d02565b602082019050919050565b60006020820190508181036000830152612d6781612d2b565b9050919050565b7f4e487b7100000000000000000000000000000000000000000000000000000000600052601160045260246000fd5b6000612da8826120d4565b9150612db3836120d4565b9250828201905080821115612dcb57612dca612d6e565b5b92915050565b7f4552433732313a2061646472657373207a65726f206973206e6f74206120766160008201527f6c6964206f776e65720000000000000000000000000000000000000000000000602082015250565b6000612e2d6029836121b3565b9150612e3882612dd1565b604082019050919050565b60006020820190508181036000830152612e5c81612e20565b9050919050565b7f4f776e61626c653a2063616c6c6572206973206e6f7420746865206f776e6572600082015250565b6000612e996020836121b3565b9150612ea482612e63565b602082019050919050565b60006020820190508181036000830152612ec881612e8c565b9050919050565b7f4552433732313a20617070726f766520746f2063616c6c657200000000000000600082015250565b6000612f056019836121b3565b9150612f1082612ecf565b602082019050919050565b60006020820190508181036000830152612f3481612ef8565b9050919050565b7f4552433732313a207472616e7366657220746f206e6f6e20455243373231526560008201527f63656976657220696d706c656d656e7465720000000000000000000000000000602082015250565b6000612f976032836121b3565b9150612fa282612f3b565b604082019050919050565b60006020820190508181036000830152612fc681612f8a565b9050919050565b7f4e487b7100000000000000000000000000000000000000000000000000000000600052601260045260246000fd5b600081519050919050565b600082825260208201905092915050565b600061302382612ffc565b61302d8185613007565b935061303d8185602086016121c4565b613046816121ee565b840191505092915050565b60006080820190506130666000830187612287565b6130736020830186612287565b6130806040830185612371565b81810360608301526130928184613018565b905095945050505050565b6000815190506130ac81612045565b92915050565b6000602082840312156130c8576130c761200f565b5b60006130d68482850161309d565b91505092915050565b7f4552433732313a206d696e7420746f20746865207a65726f2061646472657373600082015250565b60006131156020836121b3565b9150613120826130df565b602082019050919050565b6000602082019050818103600083015261314481613108565b9050919050565b7f4552433732313a20746f6b656e20616c7265616479206d696e74656400000000600082015250565b6000613181601c836121b3565b915061318c8261314b565b602082019050919050565b600060208201905081810360008301526131b081613174565b905091905056fea264697066735822122083059e81e655bbf7d632563e4ef1ecc52fb66724b79980602b2301d78a2e037164736f6c63430008130033",
  "immutableReferences": {},
  "source": "// SPDX-License-Identifier: MIT\npragma solidity >=0.4.22 <0.9.0;\n\nimport \"@openzeppelin/contracts/token/ERC721/ERC721.sol\";\nimport \"@openzeppelin/contracts/access/Ownable.sol\";\nimport \"@openzeppelin/contracts/utils/math/SafeMath.sol\";\n\ncontract Parcel is ERC721, Ownable {\n    using SafeMath for uint256;\n\n    struct ParcelData {\n        address[] sensors;\n        mapping(address => bool) sensorStatus;\n    }\n\n    mapping(uint256 => ParcelData) private _parcelData;\n    uint256 private _tokenCounter;\n\n    event ParcelRegistered(uint256 indexed tokenId, address owner);\n    event HandoverInitiated(uint256 indexed tokenId, address from, address to);\n    event HandoverReceived(uint256 indexed tokenId, address from, address to);\n\n    constructor(string memory name, string memory symbol) ERC721(name, symbol) {}\n\n    function registerParcel() external {\n        uint256 tokenId = _getNextTokenId();\n        _safeMint(msg.sender, tokenId);\n\n        ParcelData storage parcel = _parcelData[tokenId];\n        emit ParcelRegistered(tokenId, msg.sender);\n    }\n\n    function initiateHandover(uint256 tokenId, address to) external {\n        require(_isApprovedOrOwner(msg.sender, tokenId), \"Only the current owner can initiate a handover\");\n        require(to != address(0), \"Invalid recipient address\");\n\n        emit HandoverInitiated(tokenId, msg.sender, to);\n        _transfer(msg.sender, to, tokenId);\n    }\n\n    function receiveHandover(uint256 tokenId) external {\n        require(_exists(tokenId), \"Token does not exist\");\n        require(ownerOf(tokenId) != msg.sender, \"You already own the parcel\");\n\n        address from = ownerOf(tokenId);\n        emit HandoverReceived(tokenId, from, msg.sender);\n        _transfer(from, msg.sender, tokenId);\n    }\n    \n    function getTokenCounter() public view returns (uint256) {\n        return _tokenCounter;\n    }\n    // Helper function to get the next token ID\n    function _getNextTokenId() public returns (uint256) {\n        _tokenCounter = _tokenCounter.add(1);\n        return _tokenCounter;\n    }\n\n    function getNextTokenId() external returns (uint256) {\n        return _getNextTokenId();\n    }\n\n    function safeMint(address to) public {\n        _tokenCounter = _tokenCounter.add(1);\n        _safeMint(to, _tokenCounter);\n    }\n\n    // Override balanceOf function from ERC721\n    function balanceOf(address owner) public view virtual override returns (uint256) {\n        require(owner != address(0), \"Invalid address\");\n        return super.balanceOf(owner);\n    }\n\n    // Override ownerOf function from ERC721\n    function ownerOf(uint256 tokenId) public view virtual override returns (address) {\n        require(_exists(tokenId), \"Token does not exist\");\n        return super.ownerOf(tokenId);\n    }\n\n    // Override safeTransferFrom function from ERC721\n    function safeTransferFrom(address from, address to, uint256 tokenId) public virtual override {\n        require(_isApprovedOrOwner(msg.sender, tokenId), \"Not approved or owner\");\n        require(to != address(0), \"Invalid recipient address\");\n        super.safeTransferFrom(from, to, tokenId);\n    }\n\n    // Override transferFrom function from ERC721\n    function transferFrom(address from, address to, uint256 tokenId) public virtual override {\n        require(_isApprovedOrOwner(msg.sender, tokenId), \"Not approved or owner\");\n        require(to != address(0), \"Invalid recipient address\");\n        super.transferFrom(from, to, tokenId);\n    }\n}",
  "sourcePath": "/home/edua/Documents/projects/parceltrack/contracts/Parcel.sol",
  "compiler": {
    "name": "solc",
    "version": "0.8.19+commit.7dd6d404.Emscripten.clang"
  },
  "schemaVersion": "3.4.13",
  "updatedAt": "2023-05-13T15:42:18.648Z",
  "devdoc": {
    "events": {
      "Approval(address,address,uint256)": {
        "details": "Emitted when `owner` enables `approved` to manage the `tokenId` token."
      },
      "ApprovalForAll(address,address,bool)": {
        "details": "Emitted when `owner` enables or disables (`approved`) `operator` to manage all of its assets."
      },
      "Transfer(address,address,uint256)": {
        "details": "Emitted when `tokenId` token is transferred from `from` to `to`."
      }
    },
    "kind": "dev",
    "methods": {
      "approve(address,uint256)": {
        "details": "See {IERC721-approve}."
      },
      "balanceOf(address)": {
        "details": "See {IERC721-balanceOf}."
      },
      "getApproved(uint256)": {
        "details": "See {IERC721-getApproved}."
      },
      "isApprovedForAll(address,address)": {
        "details": "See {IERC721-isApprovedForAll}."
      },
      "name()": {
        "details": "See {IERC721Metadata-name}."
      },
      "owner()": {
        "details": "Returns the address of the current owner."
      },
      "ownerOf(uint256)": {
        "details": "See {IERC721-ownerOf}."
      },
      "renounceOwnership()": {
        "details": "Leaves the contract without owner. It will not be possible to call `onlyOwner` functions anymore. Can only be called by the current owner. NOTE: Renouncing ownership will leave the contract without an owner, thereby removing any functionality that is only available to the owner."
      },
      "safeTransferFrom(address,address,uint256)": {
        "details": "See {IERC721-safeTransferFrom}."
      },
      "safeTransferFrom(address,address,uint256,bytes)": {
        "details": "See {IERC721-safeTransferFrom}."
      },
      "setApprovalForAll(address,bool)": {
        "details": "See {IERC721-setApprovalForAll}."
      },
      "supportsInterface(bytes4)": {
        "details": "See {IERC165-supportsInterface}."
      },
      "symbol()": {
        "details": "See {IERC721Metadata-symbol}."
      },
      "tokenURI(uint256)": {
        "details": "See {IERC721Metadata-tokenURI}."
      },
      "transferFrom(address,address,uint256)": {
        "details": "See {IERC721-transferFrom}."
      },
      "transferOwnership(address)": {
        "details": "Transfers ownership of the contract to a new account (`newOwner`). Can only be called by the current owner."
      }
    },
    "version": 1
  },
  "userdoc": {
    "kind": "user",
    "methods": {},
    "version": 1
  }
}