{
  "contractName": "Sensor",
  "abi": [
    {
      "inputs": [
        {
          "internalType": "string",
          "name": "_sensorId",
          "type": "string"
        },
        {
          "internalType": "string",
          "name": "_sensorType",
          "type": "string"
        },
        {
          "internalType": "string[]",
          "name": "_slas",
          "type": "string[]"
        }
      ],
      "stateMutability": "nonpayable",
      "type": "constructor"
    },
    {
      "anonymous": false,
      "inputs": [
        {
          "indexed": true,
          "internalType": "address",
          "name": "previousOwner",
          "type": "address"
        },
        {
          "indexed": true,
          "internalType": "address",
          "name": "newOwner",
          "type": "address"
        }
      ],
      "name": "OwnershipTransferred",
      "type": "event"
    },
    {
      "anonymous": false,
      "inputs": [
        {
          "indexed": true,
          "internalType": "string",
          "name": "sla",
          "type": "string"
        },
        {
          "indexed": false,
          "internalType": "string",
          "name": "parcelId",
          "type": "string"
        },
        {
          "indexed": false,
          "internalType": "string",
          "name": "sensorId",
          "type": "string"
        }
      ],
      "name": "SLAViolation",
      "type": "event"
    },
    {
      "anonymous": false,
      "inputs": [
        {
          "indexed": false,
          "internalType": "string",
          "name": "parcelId",
          "type": "string"
        },
        {
          "indexed": false,
          "internalType": "string",
          "name": "sensorId",
          "type": "string"
        }
      ],
      "name": "SensorAttached",
      "type": "event"
    },
    {
      "anonymous": false,
      "inputs": [
        {
          "indexed": false,
          "internalType": "string",
          "name": "parcelId",
          "type": "string"
        },
        {
          "indexed": false,
          "internalType": "string",
          "name": "sensorId",
          "type": "string"
        }
      ],
      "name": "SensorDetached",
      "type": "event"
    },
    {
      "anonymous": false,
      "inputs": [
        {
          "indexed": false,
          "internalType": "string",
          "name": "sensorId",
          "type": "string"
        },
        {
          "indexed": false,
          "internalType": "string",
          "name": "sensorType",
          "type": "string"
        }
      ],
      "name": "SensorRegistered",
      "type": "event"
    },
    {
      "inputs": [
        {
          "internalType": "string",
          "name": "",
          "type": "string"
        }
      ],
      "name": "attachedParcels",
      "outputs": [
        {
          "internalType": "bool",
          "name": "",
          "type": "bool"
        }
      ],
      "stateMutability": "view",
      "type": "function"
    },
    {
      "inputs": [],
      "name": "owner",
      "outputs": [
        {
          "internalType": "address",
          "name": "",
          "type": "address"
        }
      ],
      "stateMutability": "view",
      "type": "function"
    },
    {
      "inputs": [],
      "name": "renounceOwnership",
      "outputs": [],
      "stateMutability": "nonpayable",
      "type": "function"
    },
    {
      "inputs": [],
      "name": "sensorId",
      "outputs": [
        {
          "internalType": "string",
          "name": "",
          "type": "string"
        }
      ],
      "stateMutability": "view",
      "type": "function"
    },
    {
      "inputs": [],
      "name": "sensorType",
      "outputs": [
        {
          "internalType": "string",
          "name": "",
          "type": "string"
        }
      ],
      "stateMutability": "view",
      "type": "function"
    },
    {
      "inputs": [
        {
          "internalType": "string",
          "name": "",
          "type": "string"
        }
      ],
      "name": "slas",
      "outputs": [
        {
          "internalType": "bool",
          "name": "",
          "type": "bool"
        }
      ],
      "stateMutability": "view",
      "type": "function"
    },
    {
      "inputs": [
        {
          "internalType": "address",
          "name": "newOwner",
          "type": "address"
        }
      ],
      "name": "transferOwnership",
      "outputs": [],
      "stateMutability": "nonpayable",
      "type": "function"
    },
    {
      "inputs": [
        {
          "internalType": "string",
          "name": "_parcelId",
          "type": "string"
        }
      ],
      "name": "attachToParcel",
      "outputs": [],
      "stateMutability": "nonpayable",
      "type": "function"
    },
    {
      "inputs": [
        {
          "internalType": "string",
          "name": "_parcelId",
          "type": "string"
        }
      ],
      "name": "detachFromParcel",
      "outputs": [],
      "stateMutability": "nonpayable",
      "type": "function"
    },
    {
      "inputs": [
        {
          "internalType": "string",
          "name": "_sla",
          "type": "string"
        },
        {
          "internalType": "string",
          "name": "_parcelId",
          "type": "string"
        }
      ],
      "name": "logViolation",
      "outputs": [],
      "stateMutability": "nonpayable",
      "type": "function"
    }
  ],
  "bytecode": "0x60806040523480156200001157600080fd5b506040516200178638038062001786833981810160405281019062000037919062000496565b620000576200004b6200013b60201b60201c565b6200014360201b60201c565b82600190816200006891906200079a565b5081600290816200007a91906200079a565b5060005b8151811015620000f45760016003838381518110620000a257620000a162000881565b5b6020026020010151604051620000b99190620008f2565b908152602001604051809103902060006101000a81548160ff0219169083151502179055508080620000eb906200093a565b9150506200007e565b507f7a8323f6e6669ca2845df74b09faeedf7492f343dbc13df2e865135dc2672cb7600160026040516200012a92919062000a28565b60405180910390a150505062000a63565b600033905090565b60008060009054906101000a900473ffffffffffffffffffffffffffffffffffffffff169050816000806101000a81548173ffffffffffffffffffffffffffffffffffffffff021916908373ffffffffffffffffffffffffffffffffffffffff1602179055508173ffffffffffffffffffffffffffffffffffffffff168173ffffffffffffffffffffffffffffffffffffffff167f8be0079c531659141344cd1fd0a4f28419497f9722a3daafe3b4186f6b6457e060405160405180910390a35050565b6000604051905090565b600080fd5b600080fd5b600080fd5b600080fd5b6000601f19601f8301169050919050565b7f4e487b7100000000000000000000000000000000000000000000000000000000600052604160045260246000fd5b620002708262000225565b810181811067ffffffffffffffff8211171562000292576200029162000236565b5b80604052505050565b6000620002a762000207565b9050620002b5828262000265565b919050565b600067ffffffffffffffff821115620002d857620002d762000236565b5b620002e38262000225565b9050602081019050919050565b60005b8381101562000310578082015181840152602081019050620002f3565b60008484015250505050565b6000620003336200032d84620002ba565b6200029b565b90508281526020810184848401111562000352576200035162000220565b5b6200035f848285620002f0565b509392505050565b600082601f8301126200037f576200037e6200021b565b5b8151620003918482602086016200031c565b91505092915050565b600067ffffffffffffffff821115620003b857620003b762000236565b5b602082029050602081019050919050565b600080fd5b6000620003e5620003df846200039a565b6200029b565b905080838252602082019050602084028301858111156200040b576200040a620003c9565b5b835b818110156200045957805167ffffffffffffffff8111156200043457620004336200021b565b5b80860162000443898262000367565b855260208501945050506020810190506200040d565b5050509392505050565b600082601f8301126200047b576200047a6200021b565b5b81516200048d848260208601620003ce565b91505092915050565b600080600060608486031215620004b257620004b162000211565b5b600084015167ffffffffffffffff811115620004d357620004d262000216565b5b620004e18682870162000367565b935050602084015167ffffffffffffffff81111562000505576200050462000216565b5b620005138682870162000367565b925050604084015167ffffffffffffffff81111562000537576200053662000216565b5b620005458682870162000463565b9150509250925092565b600081519050919050565b7f4e487b7100000000000000000000000000000000000000000000000000000000600052602260045260246000fd5b60006002820490506001821680620005a257607f821691505b602082108103620005b857620005b76200055a565b5b50919050565b60008190508160005260206000209050919050565b60006020601f8301049050919050565b600082821b905092915050565b600060088302620006227fffffffffffffffffffffffffffffffffffffffffffffffffffffffffffffffff82620005e3565b6200062e8683620005e3565b95508019841693508086168417925050509392505050565b6000819050919050565b6000819050919050565b60006200067b620006756200066f8462000646565b62000650565b62000646565b9050919050565b6000819050919050565b62000697836200065a565b620006af620006a68262000682565b848454620005f0565b825550505050565b600090565b620006c6620006b7565b620006d38184846200068c565b505050565b5b81811015620006fb57620006ef600082620006bc565b600181019050620006d9565b5050565b601f8211156200074a576200071481620005be565b6200071f84620005d3565b810160208510156200072f578190505b620007476200073e85620005d3565b830182620006d8565b50505b505050565b600082821c905092915050565b60006200076f600019846008026200074f565b1980831691505092915050565b60006200078a83836200075c565b9150826002028217905092915050565b620007a5826200054f565b67ffffffffffffffff811115620007c157620007c062000236565b5b620007cd825462000589565b620007da828285620006ff565b600060209050601f831160018114620008125760008415620007fd578287015190505b6200080985826200077c565b86555062000879565b601f1984166200082286620005be565b60005b828110156200084c5784890151825560018201915060208501945060208101905062000825565b868310156200086c578489015162000868601f8916826200075c565b8355505b6001600288020188555050505b505050505050565b7f4e487b7100000000000000000000000000000000000000000000000000000000600052603260045260246000fd5b600081905092915050565b6000620008c8826200054f565b620008d48185620008b0565b9350620008e6818560208601620002f0565b80840191505092915050565b6000620009008284620008bb565b915081905092915050565b7f4e487b7100000000000000000000000000000000000000000000000000000000600052601160045260246000fd5b6000620009478262000646565b91507fffffffffffffffffffffffffffffffffffffffffffffffffffffffffffffffff82036200097c576200097b6200090b565b5b600182019050919050565b600082825260208201905092915050565b60008154620009a78162000589565b620009b3818662000987565b94506001821660008114620009d15760018114620009e85762000a1f565b60ff19831686528115156020028601935062000a1f565b620009f385620005be565b60005b8381101562000a1757815481890152600182019150602081019050620009f6565b808801955050505b50505092915050565b6000604082019050818103600083015262000a44818562000998565b9050818103602083015262000a5a818462000998565b90509392505050565b610d138062000a736000396000f3fe608060405234801561001057600080fd5b506004361061009e5760003560e01c80639c93d7d7116100665780639c93d7d714610133578063ba15d2401461014f578063cb60e1cd1461016d578063f2fde38b1461019d578063fc8d4a59146101b95761009e565b80630b00b05e146100a3578063339c6b62146100d3578063715018a6146100ef5780637e51b5c3146100f95780638da5cb5b14610115575b600080fd5b6100bd60048036038101906100b8919061080f565b6101d7565b6040516100ca9190610873565b60405180910390f35b6100ed60048036038101906100e8919061080f565b61020d565b005b6100f7610289565b005b610113600480360381019061010e919061088e565b61029d565b005b61011d6102f1565b60405161012a9190610947565b60405180910390f35b61014d6004803603810190610148919061080f565b61031a565b005b610157610396565b60405161016491906109e1565b60405180910390f35b6101876004803603810190610182919061080f565b610424565b6040516101949190610873565b60405180910390f35b6101b760048036038101906101b29190610a2f565b61045a565b005b6101c16104dd565b6040516101ce91906109e1565b60405180910390f35b6003818051602081018201805184825260208301602085012081835280955050505050506000915054906101000a900460ff1681565b61021561056b565b60006004826040516102279190610a98565b908152602001604051809103902060006101000a81548160ff0219169083151502179055507f67424b7b94029b784b3aa7ce134bbfbaa48845f2174a66f1d167b608fd05a05581600160405161027e929190610ba8565b60405180910390a150565b61029161056b565b61029b60006105e9565b565b816040516102ab9190610a98565b60405180910390207fbde8e7a46f4cc85f0669ec58971b212986748a8d6650a5656da3de6e88eedf338260016040516102e5929190610ba8565b60405180910390a25050565b60008060009054906101000a900473ffffffffffffffffffffffffffffffffffffffff16905090565b61032261056b565b60016004826040516103349190610a98565b908152602001604051809103902060006101000a81548160ff0219169083151502179055507fd5a1d5114859de004ce0adf4d4c89956f486973e094126bfb50798093b02ef4d81600160405161038b929190610ba8565b60405180910390a150565b600180546103a390610ade565b80601f01602080910402602001604051908101604052809291908181526020018280546103cf90610ade565b801561041c5780601f106103f15761010080835404028352916020019161041c565b820191906000526020600020905b8154815290600101906020018083116103ff57829003601f168201915b505050505081565b6004818051602081018201805184825260208301602085012081835280955050505050506000915054906101000a900460ff1681565b61046261056b565b600073ffffffffffffffffffffffffffffffffffffffff168173ffffffffffffffffffffffffffffffffffffffff16036104d1576040517f08c379a00000000000000000000000000000000000000000000000000000000081526004016104c890610c51565b60405180910390fd5b6104da816105e9565b50565b600280546104ea90610ade565b80601f016020809104026020016040519081016040528092919081815260200182805461051690610ade565b80156105635780601f1061053857610100808354040283529160200191610563565b820191906000526020600020905b81548152906001019060200180831161054657829003601f168201915b505050505081565b6105736106ad565b73ffffffffffffffffffffffffffffffffffffffff166105916102f1565b73ffffffffffffffffffffffffffffffffffffffff16146105e7576040517f08c379a00000000000000000000000000000000000000000000000000000000081526004016105de90610cbd565b60405180910390fd5b565b60008060009054906101000a900473ffffffffffffffffffffffffffffffffffffffff169050816000806101000a81548173ffffffffffffffffffffffffffffffffffffffff021916908373ffffffffffffffffffffffffffffffffffffffff1602179055508173ffffffffffffffffffffffffffffffffffffffff168173ffffffffffffffffffffffffffffffffffffffff167f8be0079c531659141344cd1fd0a4f28419497f9722a3daafe3b4186f6b6457e060405160405180910390a35050565b600033905090565b6000604051905090565b600080fd5b600080fd5b600080fd5b600080fd5b6000601f19601f8301169050919050565b7f4e487b7100000000000000000000000000000000000000000000000000000000600052604160045260246000fd5b61071c826106d3565b810181811067ffffffffffffffff8211171561073b5761073a6106e4565b5b80604052505050565b600061074e6106b5565b905061075a8282610713565b919050565b600067ffffffffffffffff82111561077a576107796106e4565b5b610783826106d3565b9050602081019050919050565b82818337600083830152505050565b60006107b26107ad8461075f565b610744565b9050828152602081018484840111156107ce576107cd6106ce565b5b6107d9848285610790565b509392505050565b600082601f8301126107f6576107f56106c9565b5b813561080684826020860161079f565b91505092915050565b600060208284031215610825576108246106bf565b5b600082013567ffffffffffffffff811115610843576108426106c4565b5b61084f848285016107e1565b91505092915050565b60008115159050919050565b61086d81610858565b82525050565b60006020820190506108886000830184610864565b92915050565b600080604083850312156108a5576108a46106bf565b5b600083013567ffffffffffffffff8111156108c3576108c26106c4565b5b6108cf858286016107e1565b925050602083013567ffffffffffffffff8111156108f0576108ef6106c4565b5b6108fc858286016107e1565b9150509250929050565b600073ffffffffffffffffffffffffffffffffffffffff82169050919050565b600061093182610906565b9050919050565b61094181610926565b82525050565b600060208201905061095c6000830184610938565b92915050565b600081519050919050565b600082825260208201905092915050565b60005b8381101561099c578082015181840152602081019050610981565b60008484015250505050565b60006109b382610962565b6109bd818561096d565b93506109cd81856020860161097e565b6109d6816106d3565b840191505092915050565b600060208201905081810360008301526109fb81846109a8565b905092915050565b610a0c81610926565b8114610a1757600080fd5b50565b600081359050610a2981610a03565b92915050565b600060208284031215610a4557610a446106bf565b5b6000610a5384828501610a1a565b91505092915050565b600081905092915050565b6000610a7282610962565b610a7c8185610a5c565b9350610a8c81856020860161097e565b80840191505092915050565b6000610aa48284610a67565b915081905092915050565b7f4e487b7100000000000000000000000000000000000000000000000000000000600052602260045260246000fd5b60006002820490506001821680610af657607f821691505b602082108103610b0957610b08610aaf565b5b50919050565b60008190508160005260206000209050919050565b60008154610b3181610ade565b610b3b818661096d565b94506001821660008114610b565760018114610b6c57610b9f565b60ff198316865281151560200286019350610b9f565b610b7585610b0f565b60005b83811015610b9757815481890152600182019150602081019050610b78565b808801955050505b50505092915050565b60006040820190508181036000830152610bc281856109a8565b90508181036020830152610bd68184610b24565b90509392505050565b7f4f776e61626c653a206e6577206f776e657220697320746865207a65726f206160008201527f6464726573730000000000000000000000000000000000000000000000000000602082015250565b6000610c3b60268361096d565b9150610c4682610bdf565b604082019050919050565b60006020820190508181036000830152610c6a81610c2e565b9050919050565b7f4f776e61626c653a2063616c6c6572206973206e6f7420746865206f776e6572600082015250565b6000610ca760208361096d565b9150610cb282610c71565b602082019050919050565b60006020820190508181036000830152610cd681610c9a565b905091905056fea2646970667358221220f4fce5e17be9d9197c079e54c48906b6fcfcd8bbbfa6b8d88035ec5fa6bf87c264736f6c63430008130033",
  "immutableReferences": {},
  "source": "// SPDX-License-Identifier: MIT\npragma solidity >=0.4.22 <0.9.0;\n\n\nimport \"@openzeppelin/contracts/access/Ownable.sol\";\n\n/**\n * @title Sensor\n * @dev A smart contract for registering and managing sensors for tracking parcels\n */\n\ncontract Sensor is Ownable {\n    string public sensorId;\n    string public sensorType;\n    mapping(string => bool) public slas;\n    mapping(string => bool) public attachedParcels;\n\n    event SensorRegistered(string sensorId, string sensorType);\n    event SLAViolation(string indexed sla, string parcelId, string sensorId);\n    event SensorAttached(string parcelId, string sensorId);\n    event SensorDetached(string parcelId, string sensorId);\n\n    constructor(string memory _sensorId, string memory _sensorType, string[] memory _slas) {\n        sensorId = _sensorId;\n        sensorType = _sensorType;\n        for(uint i = 0; i < _slas.length; i++) {\n            slas[_slas[i]] = true;\n        }\n        emit SensorRegistered(sensorId, sensorType);\n    }\n\n/**\n * @dev Attach the sensor to a parcel\n * @param _parcelId The ID of the parcel to attach the sensor to\n */\n    function attachToParcel(string memory _parcelId) public onlyOwner {\n        attachedParcels[_parcelId] = true;\n        emit SensorAttached(_parcelId, sensorId);\n    }\n\n/**\n * @dev Detach the sensor from a parcel\n * @param _parcelId The ID of the parcel to detach the sensor from\n */\n    function detachFromParcel(string memory _parcelId) public onlyOwner {\n        attachedParcels[_parcelId] = false;\n        emit SensorDetached(_parcelId, sensorId);\n    }\n\n/**\n * @dev Logs a violation of an SLA by the sensor attached to the parcel.\n *      The function stores the parcel ID that the sensor is attached to,\n *      so that when a violation occurs, it can be logged in the context of the parcel.\n * @param _sla The SLA that has been violated.\n * @param _parcelId The ID of the parcel that the sensor is attached to.\n */\n    function logViolation(string memory _sla, string memory _parcelId) public {\n        emit SLAViolation(_sla, _parcelId, sensorId);\n    }\n}\n",
  "sourcePath": "/home/edua/Documents/projects/parceltrack/contracts/Sensor.sol",
  "compiler": {
    "name": "solc",
    "version": "0.8.19+commit.7dd6d404.Emscripten.clang"
  },
  "schemaVersion": "3.4.13",
  "updatedAt": "2023-05-13T15:42:18.658Z",
  "devdoc": {
    "details": "A smart contract for registering and managing sensors for tracking parcels",
    "kind": "dev",
    "methods": {
      "attachToParcel(string)": {
        "details": "Attach the sensor to a parcel",
        "params": {
          "_parcelId": "The ID of the parcel to attach the sensor to"
        }
      },
      "detachFromParcel(string)": {
        "details": "Detach the sensor from a parcel",
        "params": {
          "_parcelId": "The ID of the parcel to detach the sensor from"
        }
      },
      "logViolation(string,string)": {
        "details": "Logs a violation of an SLA by the sensor attached to the parcel.      The function stores the parcel ID that the sensor is attached to,      so that when a violation occurs, it can be logged in the context of the parcel.",
        "params": {
          "_parcelId": "The ID of the parcel that the sensor is attached to.",
          "_sla": "The SLA that has been violated."
        }
      },
      "owner()": {
        "details": "Returns the address of the current owner."
      },
      "renounceOwnership()": {
        "details": "Leaves the contract without owner. It will not be possible to call `onlyOwner` functions anymore. Can only be called by the current owner. NOTE: Renouncing ownership will leave the contract without an owner, thereby removing any functionality that is only available to the owner."
      },
      "transferOwnership(address)": {
        "details": "Transfers ownership of the contract to a new account (`newOwner`). Can only be called by the current owner."
      }
    },
    "title": "Sensor",
    "version": 1
  },
  "userdoc": {
    "kind": "user",
    "methods": {},
    "version": 1
  }
}