{
  "contractName": "Sensor",
  "abi": [
    {
      "anonymous": false,
      "inputs": [
        {
          "indexed": false,
          "internalType": "uint256",
          "name": "sensorId",
          "type": "uint256"
        },
        {
          "indexed": false,
          "internalType": "uint256",
          "name": "value",
          "type": "uint256"
        }
      ],
      "name": "ValueLogged",
      "type": "event"
    },
    {
      "inputs": [
        {
          "internalType": "address",
          "name": "_parcelContract",
          "type": "address"
        }
      ],
      "name": "setParcelContract",
      "outputs": [],
      "stateMutability": "nonpayable",
      "type": "function"
    },
    {
      "inputs": [
        {
          "internalType": "uint256",
          "name": "parcelId",
          "type": "uint256"
        },
        {
          "internalType": "uint256",
          "name": "threshold",
          "type": "uint256"
        }
      ],
      "name": "attachSensor",
      "outputs": [
        {
          "internalType": "uint256",
          "name": "",
          "type": "uint256"
        }
      ],
      "stateMutability": "nonpayable",
      "type": "function"
    },
    {
      "inputs": [
        {
          "internalType": "uint256",
          "name": "_parcelId",
          "type": "uint256"
        }
      ],
      "name": "activateSensor",
      "outputs": [],
      "stateMutability": "nonpayable",
      "type": "function"
    },
    {
      "inputs": [
        {
          "internalType": "uint256",
          "name": "_parcelId",
          "type": "uint256"
        }
      ],
      "name": "deactivateSensor",
      "outputs": [],
      "stateMutability": "nonpayable",
      "type": "function"
    },
    {
      "inputs": [
        {
          "internalType": "uint256",
          "name": "sensorId",
          "type": "uint256"
        },
        {
          "internalType": "uint256",
          "name": "value",
          "type": "uint256"
        }
      ],
      "name": "logValue",
      "outputs": [],
      "stateMutability": "nonpayable",
      "type": "function"
    },
    {
      "inputs": [
        {
          "internalType": "uint256",
          "name": "_parcelId",
          "type": "uint256"
        }
      ],
      "name": "getSensorStatus",
      "outputs": [
        {
          "internalType": "bool",
          "name": "",
          "type": "bool"
        }
      ],
      "stateMutability": "view",
      "type": "function"
    },
    {
      "inputs": [
        {
          "internalType": "uint256",
          "name": "_parcelId",
          "type": "uint256"
        }
      ],
      "name": "getSensorId",
      "outputs": [
        {
          "internalType": "uint256",
          "name": "",
          "type": "uint256"
        }
      ],
      "stateMutability": "view",
      "type": "function"
    },
    {
      "inputs": [
        {
          "internalType": "uint256",
          "name": "_parcelId",
          "type": "uint256"
        }
      ],
      "name": "getSensorThreshold",
      "outputs": [
        {
          "internalType": "uint256",
          "name": "",
          "type": "uint256"
        }
      ],
      "stateMutability": "view",
      "type": "function"
    },
    {
      "inputs": [
        {
          "internalType": "uint256",
          "name": "_parcelId",
          "type": "uint256"
        }
      ],
      "name": "getSensorViolation",
      "outputs": [
        {
          "internalType": "bool",
          "name": "",
          "type": "bool"
        }
      ],
      "stateMutability": "view",
      "type": "function"
    }
  ],
  "bytecode": "0x608060405234801561001057600080fd5b506104a0806100206000396000f3fe608060405234801561001057600080fd5b50600436106100835760003560e01c8063051252c2146100885780630b2a3bae146100b357806336663c33146100d9578063532cf197146101105780636a109a071461013e578063837f5e00146101515780639c54ecb314610177578063a4ae84221461019a578063b582dfb9146101ba575b600080fd5b6100b16100963660046103ff565b6000908152600360205260409020600101805460ff19169055565b005b6100c66100c1366004610418565b6101cd565b6040519081526020015b60405180910390f35b6101006100e73660046103ff565b6000908152600360208190526040909120015460ff1690565b60405190151581526020016100d0565b6100b161011e3660046103ff565b60009081526003602052604090206001908101805460ff19169091179055565b6100b161014c36600461043a565b610279565b61010061015f3660046103ff565b60009081526003602052604090206001015460ff1690565b6100c66101853660046103ff565b60009081526003602052604090206002015490565b6100c66101a83660046103ff565b60009081526005602052604090205490565b6100b16101c8366004610418565b6102f6565b6000806101d960015490565b90506101e9600180546001019055565b60008181526002602081815260408084208881558084019788556003808201805460ff19908116825560019384018054821681558c89528387528589208d815590549481018054831660ff96871615151790559a54968b01969096555498018054909416971615159690961790915582825260048152848220869055948152600590945291909220819055919050565b6001600160a01b0381166102d45760405162461bcd60e51b815260206004820152601f60248201527f496e76616c69642050617263656c20636f6e747261637420616464726573730060448201526064015b60405180910390fd5b600080546001600160a01b0319166001600160a01b0392909216919091179055565b6000546001600160a01b031661034e5760405162461bcd60e51b815260206004820152601f60248201527f50617263656c20636f6e74726163742061646472657373206e6f74207365740060448201526064016102cb565b6000828152600460208190526040808320549254905163b582dfb960e01b8152918201839052602482018490526001600160a01b03169063b582dfb990604401600060405180830381600087803b1580156103a857600080fd5b505af11580156103bc573d6000803e3d6000fd5b505060408051868152602081018690527f637a957ad525430310fdcf9fbef4a6d5c455f1f4024b9259f199a77ad863f44d935001905060405180910390a1505050565b60006020828403121561041157600080fd5b5035919050565b6000806040838503121561042b57600080fd5b50508035926020909101359150565b60006020828403121561044c57600080fd5b81356001600160a01b038116811461046357600080fd5b939250505056fea2646970667358221220cd99e6252bbcc3001e1758042fb5085e91d65cb72fbe59026d884d477385e05a64736f6c63430008130033",
  "immutableReferences": {},
  "source": "// SPDX-License-Identifier: MIT\npragma solidity >=0.4.22 <0.9.0;\n\nimport \"./Parcel.sol\";\nimport \"@openzeppelin/contracts/utils/Counters.sol\";\n\n\ncontract Sensor {\n\n    using Counters for Counters.Counter;\n    Parcel private parcelContract;\n    Counters.Counter private _sensorIds;\n\n    struct SmartSensor {\n        uint parcelId;\n        bool active;\n        uint threshold;\n        bool violation;\n    }\n\n    mapping(uint256 => SmartSensor) private _sensorsById;\n    mapping(uint256 => SmartSensor) private _sensorsByPId;\n    mapping(uint256 => uint256) private _sensorToPId;\n    mapping(uint256 => uint256) private _pIdToSensor;\n\n\n    // Event to indicate a measured value has been logged\n    event ValueLogged(uint sensorId, uint256 value);\n\n    // Function to set the address of the associated Parcel contract\n    function setParcelContract(address _parcelContract) external {\n        require(_parcelContract != address(0), \"Invalid Parcel contract address\");\n        parcelContract = Parcel(_parcelContract);\n    }\n\n    function attachSensor(uint parcelId, uint threshold) external returns(uint) {\n        uint sensorId = _sensorIds.current();\n        _sensorIds.increment();\n        SmartSensor storage sensor = _sensorsById[sensorId];\n\n        sensor.parcelId = parcelId;\n        sensor.threshold = threshold;\n        sensor.violation = false;\n        sensor.active = false;\n\n        _sensorsByPId[parcelId] = sensor;\n        _sensorToPId[sensorId] = parcelId;\n        _pIdToSensor[parcelId] = sensorId;\n\n        return sensorId;\n    }\n\n    function activateSensor(uint256 _parcelId) external {\n        _sensorsByPId[_parcelId].active = true;\n    }\n\n    function deactivateSensor(uint256 _parcelId) external {\n        _sensorsByPId[_parcelId].active = false;\n    }\n    // Function to log a measured value for a specific sensor\n    function logValue(uint sensorId, uint256 value) external {\n        require(address(parcelContract) != address(0), \"Parcel contract address not set\");\n        uint parcelId = _sensorToPId[sensorId];\n        parcelContract.logValue(parcelId, value);\n        emit ValueLogged(sensorId, value);\n    }\n\n    function getSensorStatus(uint256 _parcelId) public view returns (bool) {\n        return _sensorsByPId[_parcelId].active;\n    }\n\n    function getSensorId(uint256 _parcelId) public view returns (uint256) {\n        return _pIdToSensor[_parcelId];\n    }\n\n    function getSensorThreshold(uint256 _parcelId) public view returns (uint) {\n        return _sensorsByPId[_parcelId].threshold;\n    }\n\n    function getSensorViolation(uint256 _parcelId) public view returns (bool) {\n        return _sensorsByPId[_parcelId].violation;\n    }\n\n}\n",
  "sourcePath": "/home/edua/Documents/projects/parceltrack/contracts/Sensor.sol",
  "compiler": {
    "name": "solc",
    "version": "0.8.19+commit.7dd6d404.Emscripten.clang"
  },
  "schemaVersion": "3.4.13",
  "updatedAt": "2023-06-17T03:03:10.282Z",
  "devdoc": {
    "kind": "dev",
    "methods": {},
    "version": 1
  },
  "userdoc": {
    "kind": "user",
    "methods": {},
    "version": 1
  }
}